{
  "abi": [
    {
      "inputs": [],
      "stateMutability": "nonpayable",
      "type": "constructor"
    },
    {
      "anonymous": false,
      "inputs": [
        {
          "indexed": true,
          "internalType": "address",
          "name": "account",
          "type": "address"
        },
        {
          "indexed": true,
          "internalType": "address",
          "name": "operator",
          "type": "address"
        },
        {
          "indexed": false,
          "internalType": "bool",
          "name": "approved",
          "type": "bool"
        }
      ],
      "name": "ApprovalForAll",
      "type": "event"
    },
    {
      "anonymous": false,
      "inputs": [
        {
          "indexed": false,
          "internalType": "string",
          "name": "_ipfsID",
          "type": "string"
        },
        {
          "indexed": false,
          "internalType": "uint256",
          "name": "_tokenID",
          "type": "uint256"
        },
        {
          "indexed": false,
          "internalType": "uint256",
          "name": "_reward",
          "type": "uint256"
        }
      ],
      "name": "TaskCancelled",
      "type": "event"
    },
    {
      "anonymous": false,
      "inputs": [
        {
          "indexed": false,
          "internalType": "string",
          "name": "_ipfsID",
          "type": "string"
        },
        {
          "indexed": false,
          "internalType": "uint256",
          "name": "_tokenID",
          "type": "uint256"
        },
        {
          "indexed": false,
          "internalType": "uint256",
          "name": "_reward",
          "type": "uint256"
        }
      ],
      "name": "TaskClaimed",
      "type": "event"
    },
    {
      "anonymous": false,
      "inputs": [
        {
          "indexed": false,
          "internalType": "string",
          "name": "_ipfsID",
          "type": "string"
        },
        {
          "indexed": false,
          "internalType": "uint256",
          "name": "_tokenID",
          "type": "uint256"
        },
        {
          "indexed": false,
          "internalType": "uint256",
          "name": "_reward",
          "type": "uint256"
        }
      ],
      "name": "TaskCompleted",
      "type": "event"
    },
    {
      "anonymous": false,
      "inputs": [
        {
          "indexed": false,
          "internalType": "string",
          "name": "_ipfsID",
          "type": "string"
        },
        {
          "indexed": false,
          "internalType": "uint256",
          "name": "_tokenID",
          "type": "uint256"
        },
        {
          "indexed": false,
          "internalType": "uint256",
          "name": "_reward",
          "type": "uint256"
        }
      ],
      "name": "TaskCreated",
      "type": "event"
    },
    {
      "anonymous": false,
      "inputs": [
        {
          "indexed": true,
          "internalType": "bytes32",
          "name": "role",
          "type": "bytes32"
        },
        {
          "indexed": true,
          "internalType": "bytes32",
          "name": "previousAdminRole",
          "type": "bytes32"
        },
        {
          "indexed": true,
          "internalType": "bytes32",
          "name": "newAdminRole",
          "type": "bytes32"
        }
      ],
      "name": "RoleAdminChanged",
      "type": "event"
    },
    {
      "anonymous": false,
      "inputs": [
        {
          "indexed": true,
          "internalType": "bytes32",
          "name": "role",
          "type": "bytes32"
        },
        {
          "indexed": true,
          "internalType": "address",
          "name": "account",
          "type": "address"
        },
        {
          "indexed": true,
          "internalType": "address",
          "name": "sender",
          "type": "address"
        }
      ],
      "name": "RoleGranted",
      "type": "event"
    },
    {
      "anonymous": false,
      "inputs": [
        {
          "indexed": true,
          "internalType": "bytes32",
          "name": "role",
          "type": "bytes32"
        },
        {
          "indexed": true,
          "internalType": "address",
          "name": "account",
          "type": "address"
        },
        {
          "indexed": true,
          "internalType": "address",
          "name": "sender",
          "type": "address"
        }
      ],
      "name": "RoleRevoked",
      "type": "event"
    },
    {
      "anonymous": false,
      "inputs": [
        {
          "indexed": true,
          "internalType": "address",
          "name": "operator",
          "type": "address"
        },
        {
          "indexed": true,
          "internalType": "address",
          "name": "from",
          "type": "address"
        },
        {
          "indexed": true,
          "internalType": "address",
          "name": "to",
          "type": "address"
        },
        {
          "indexed": false,
          "internalType": "uint256[]",
          "name": "ids",
          "type": "uint256[]"
        },
        {
          "indexed": false,
          "internalType": "uint256[]",
          "name": "values",
          "type": "uint256[]"
        }
      ],
      "name": "TransferBatch",
      "type": "event"
    },
    {
      "anonymous": false,
      "inputs": [
        {
          "indexed": true,
          "internalType": "address",
          "name": "operator",
          "type": "address"
        },
        {
          "indexed": true,
          "internalType": "address",
          "name": "from",
          "type": "address"
        },
        {
          "indexed": true,
          "internalType": "address",
          "name": "to",
          "type": "address"
        },
        {
          "indexed": false,
          "internalType": "uint256",
          "name": "id",
          "type": "uint256"
        },
        {
          "indexed": false,
          "internalType": "uint256",
          "name": "value",
          "type": "uint256"
        }
      ],
      "name": "TransferSingle",
      "type": "event"
    },
    {
      "anonymous": false,
      "inputs": [
        {
          "indexed": false,
          "internalType": "string",
          "name": "value",
          "type": "string"
        },
        {
          "indexed": true,
          "internalType": "uint256",
          "name": "id",
          "type": "uint256"
        }
      ],
      "name": "URI",
      "type": "event"
    },
    {
      "inputs": [],
      "name": "CONTRACTOR_ROLE",
      "outputs": [
        {
          "internalType": "bytes32",
          "name": "",
          "type": "bytes32"
        }
      ],
      "stateMutability": "view",
      "type": "function"
    },
    {
      "inputs": [],
      "name": "DEFAULT_ADMIN_ROLE",
      "outputs": [
        {
          "internalType": "bytes32",
          "name": "",
          "type": "bytes32"
        }
      ],
      "stateMutability": "view",
      "type": "function"
    },
    {
      "inputs": [],
      "name": "EMPLOYER_ROLE",
      "outputs": [
        {
          "internalType": "bytes32",
          "name": "",
          "type": "bytes32"
        }
      ],
      "stateMutability": "view",
      "type": "function"
    },
    {
      "inputs": [
        {
          "internalType": "string",
          "name": "ipfsID",
          "type": "string"
        },
        {
          "internalType": "address",
          "name": "contractor",
          "type": "address"
        }
      ],
      "name": "approveCompletedTask",
      "outputs": [],
      "stateMutability": "nonpayable",
      "type": "function"
    },
    {
      "inputs": [
        {
          "internalType": "address",
          "name": "account",
          "type": "address"
        },
        {
          "internalType": "uint256",
          "name": "id",
          "type": "uint256"
        }
      ],
      "name": "balanceOf",
      "outputs": [
        {
          "internalType": "uint256",
          "name": "",
          "type": "uint256"
        }
      ],
      "stateMutability": "view",
      "type": "function"
    },
    {
      "inputs": [
        {
          "internalType": "address[]",
          "name": "accounts",
          "type": "address[]"
        },
        {
          "internalType": "uint256[]",
          "name": "ids",
          "type": "uint256[]"
        }
      ],
      "name": "balanceOfBatch",
      "outputs": [
        {
          "internalType": "uint256[]",
          "name": "",
          "type": "uint256[]"
        }
      ],
      "stateMutability": "view",
      "type": "function"
    },
    {
      "inputs": [
        {
          "internalType": "string",
          "name": "ipfsID",
          "type": "string"
        }
      ],
      "name": "claimTask",
      "outputs": [],
      "stateMutability": "nonpayable",
      "type": "function"
    },
    {
      "inputs": [
        {
          "internalType": "string",
          "name": "ipfsID",
          "type": "string"
        }
      ],
      "name": "claimFunds",
      "outputs": [],
      "stateMutability": "nonpayable",
      "type": "function"
    },
    {
      "inputs": [
        {
          "internalType": "string",
          "name": "ipfsID",
          "type": "string"
        }
      ],
      "name": "completeTask",
      "outputs": [],
      "stateMutability": "nonpayable",
      "type": "function"
    },
    {
      "inputs": [
        {
          "internalType": "string",
          "name": "ipfsID",
          "type": "string"
        }
      ],
      "name": "createTask",
      "outputs": [],
      "stateMutability": "payable",
      "type": "function"
    },
    {
      "inputs": [
        {
          "internalType": "string",
          "name": "ipfsID",
          "type": "string"
        },
        {
          "internalType": "address",
          "name": "contractor",
          "type": "address"
        }
      ],
      "name": "createPrivateTask",
      "outputs": [],
      "stateMutability": "payable",
      "type": "function"
    },
    {
      "inputs": [],
      "name": "getTasks",
      "outputs": [
        {
          "internalType": "string[]",
          "name": "",
          "type": "string[]"
        }
      ],
      "stateMutability": "view",
      "type": "function"
    },
    {
      "inputs": [
        {
          "internalType": "string",
          "name": "ipfsID",
          "type": "string"
        }
      ],
      "name": "getClaimers",
      "outputs": [
        {
          "internalType": "address[]",
          "name": "",
          "type": "address[]"
        }
      ],
      "stateMutability": "view",
      "type": "function"
    },
    {
      "inputs": [
        {
          "internalType": "bytes32",
          "name": "role",
          "type": "bytes32"
        }
      ],
      "name": "getRoleAdmin",
      "outputs": [
        {
          "internalType": "bytes32",
          "name": "",
          "type": "bytes32"
        }
      ],
      "stateMutability": "view",
      "type": "function"
    },
    {
      "inputs": [
        {
          "internalType": "string",
          "name": "ipfsID",
          "type": "string"
        }
      ],
      "name": "getStatus",
      "outputs": [
        {
          "internalType": "bool",
          "name": "",
          "type": "bool"
        }
      ],
      "stateMutability": "view",
      "type": "function"
    },
    {
      "inputs": [
        {
          "internalType": "string",
          "name": "ipfsID",
          "type": "string"
        }
      ],
      "name": "getTokenID",
      "outputs": [
        {
          "internalType": "uint256",
          "name": "",
          "type": "uint256"
        }
      ],
      "stateMutability": "view",
      "type": "function"
    },
    {
      "inputs": [
        {
          "internalType": "bytes32",
          "name": "role",
          "type": "bytes32"
        },
        {
          "internalType": "address",
          "name": "account",
          "type": "address"
        }
      ],
      "name": "grantRole",
      "outputs": [],
      "stateMutability": "nonpayable",
      "type": "function"
    },
    {
      "inputs": [],
      "name": "grantRoleContractor",
      "outputs": [],
      "stateMutability": "nonpayable",
      "type": "function"
    },
    {
      "inputs": [],
      "name": "grantRoleEmployer",
      "outputs": [],
      "stateMutability": "nonpayable",
      "type": "function"
    },
    {
      "inputs": [
        {
          "internalType": "bytes32",
          "name": "role",
          "type": "bytes32"
        },
        {
          "internalType": "address",
          "name": "account",
          "type": "address"
        }
      ],
      "name": "hasRole",
      "outputs": [
        {
          "internalType": "bool",
          "name": "",
          "type": "bool"
        }
      ],
      "stateMutability": "view",
      "type": "function"
    },
    {
      "inputs": [
        {
          "internalType": "address",
          "name": "account",
          "type": "address"
        },
        {
          "internalType": "address",
          "name": "operator",
          "type": "address"
        }
      ],
      "name": "isApprovedForAll",
      "outputs": [
        {
          "internalType": "bool",
          "name": "",
          "type": "bool"
        }
      ],
      "stateMutability": "view",
      "type": "function"
    },
    {
      "inputs": [
        {
          "internalType": "bytes32",
          "name": "role",
          "type": "bytes32"
        },
        {
          "internalType": "address",
          "name": "account",
          "type": "address"
        }
      ],
      "name": "renounceRole",
      "outputs": [],
      "stateMutability": "nonpayable",
      "type": "function"
    },
    {
      "inputs": [
        {
          "internalType": "bytes32",
          "name": "role",
          "type": "bytes32"
        },
        {
          "internalType": "address",
          "name": "account",
          "type": "address"
        }
      ],
      "name": "revokeRole",
      "outputs": [],
      "stateMutability": "nonpayable",
      "type": "function"
    },
    {
      "inputs": [],
      "name": "revokeRoleContractor",
      "outputs": [],
      "stateMutability": "nonpayable",
      "type": "function"
    },
    {
      "inputs": [],
      "name": "revokeRoleEmployer",
      "outputs": [],
      "stateMutability": "nonpayable",
      "type": "function"
    },
    {
      "inputs": [
        {
          "internalType": "address",
          "name": "from",
          "type": "address"
        },
        {
          "internalType": "address",
          "name": "to",
          "type": "address"
        },
        {
          "internalType": "uint256[]",
          "name": "ids",
          "type": "uint256[]"
        },
        {
          "internalType": "uint256[]",
          "name": "amounts",
          "type": "uint256[]"
        },
        {
          "internalType": "bytes",
          "name": "data",
          "type": "bytes"
        }
      ],
      "name": "safeBatchTransferFrom",
      "outputs": [],
      "stateMutability": "nonpayable",
      "type": "function"
    },
    {
      "inputs": [
        {
          "internalType": "address",
          "name": "from",
          "type": "address"
        },
        {
          "internalType": "address",
          "name": "to",
          "type": "address"
        },
        {
          "internalType": "uint256",
          "name": "id",
          "type": "uint256"
        },
        {
          "internalType": "uint256",
          "name": "amount",
          "type": "uint256"
        },
        {
          "internalType": "bytes",
          "name": "data",
          "type": "bytes"
        }
      ],
      "name": "safeTransferFrom",
      "outputs": [],
      "stateMutability": "nonpayable",
      "type": "function"
    },
    {
      "inputs": [
        {
          "internalType": "address",
          "name": "operator",
          "type": "address"
        },
        {
          "internalType": "bool",
          "name": "approved",
          "type": "bool"
        }
      ],
      "name": "setApprovalForAll",
      "outputs": [],
      "stateMutability": "nonpayable",
      "type": "function"
    },
    {
      "inputs": [
        {
          "internalType": "address",
          "name": "addr",
          "type": "address"
        }
      ],
      "name": "setContract",
      "outputs": [],
      "stateMutability": "nonpayable",
      "type": "function"
    },
    {
      "inputs": [
        {
          "internalType": "bytes4",
          "name": "interfaceId",
          "type": "bytes4"
        }
      ],
      "name": "supportsInterface",
      "outputs": [
        {
          "internalType": "bool",
          "name": "",
          "type": "bool"
        }
      ],
      "stateMutability": "view",
      "type": "function"
    },
    {
      "inputs": [],
      "name": "tokenID",
      "outputs": [
        {
          "internalType": "uint256",
          "name": "",
          "type": "uint256"
        }
      ],
      "stateMutability": "view",
      "type": "function"
    },
    {
      "inputs": [
        {
          "internalType": "uint256",
          "name": "",
          "type": "uint256"
        },
        {
          "internalType": "uint256",
          "name": "",
          "type": "uint256"
        }
      ],
      "name": "tokenIDtoClaimers",
      "outputs": [
        {
          "internalType": "address",
          "name": "",
          "type": "address"
        }
      ],
      "stateMutability": "view",
      "type": "function"
    },
    {
      "inputs": [
        {
          "internalType": "uint256",
          "name": "",
          "type": "uint256"
        }
      ],
      "name": "tokenIDtoDone",
      "outputs": [
        {
          "internalType": "bool",
          "name": "",
          "type": "bool"
        }
      ],
      "stateMutability": "view",
      "type": "function"
    },
    {
      "inputs": [
        {
          "internalType": "uint256",
          "name": "",
          "type": "uint256"
        }
      ],
      "name": "tokenIDtoIPFS",
      "outputs": [
        {
          "internalType": "string",
          "name": "",
          "type": "string"
        }
      ],
      "stateMutability": "view",
      "type": "function"
    },
    {
      "inputs": [
        {
          "internalType": "uint256",
          "name": "",
          "type": "uint256"
        }
      ],
      "name": "tokenIDtoReward",
      "outputs": [
        {
          "internalType": "uint256",
          "name": "",
          "type": "uint256"
        }
      ],
      "stateMutability": "view",
      "type": "function"
    },
    {
      "inputs": [
        {
          "internalType": "string",
          "name": "tokenId",
          "type": "string"
        }
      ],
      "name": "tokenURI",
      "outputs": [
        {
          "internalType": "string",
          "name": "",
          "type": "string"
        }
      ],
      "stateMutability": "pure",
      "type": "function"
    },
    {
      "inputs": [],
      "name": "treasury",
      "outputs": [
        {
          "internalType": "address",
          "name": "",
          "type": "address"
        }
      ],
      "stateMutability": "view",
      "type": "function"
    },
    {
      "inputs": [
        {
          "internalType": "uint256",
          "name": "",
          "type": "uint256"
        }
      ],
      "name": "uri",
      "outputs": [
        {
          "internalType": "string",
          "name": "",
          "type": "string"
        }
      ],
      "stateMutability": "view",
      "type": "function"
    }
  ],
  "bytecode": {
    "object": "0x6080604052600680546001600160a01b031916905560006007553480156200002657600080fd5b506040518060800160405280605d815260200162003775605d91396200004c8162000065565b5060016004556200005f60003362000077565b62000295565b6002620000738282620001c9565b5050565b60008281526003602090815260408083206001600160a01b038516845290915290205462000073908390839060ff16620000735760008281526003602090815260408083206001600160a01b03851684529091529020805460ff19166001179055620000e03390565b6001600160a01b0316816001600160a01b0316837f2f8788117e7eff1d82e926ec794901d17c78024a50270940304540a733656f0d60405160405180910390a45050565b634e487b7160e01b600052604160045260246000fd5b600181811c908216806200014f57607f821691505b6020821081036200017057634e487b7160e01b600052602260045260246000fd5b50919050565b601f821115620001c457600081815260208120601f850160051c810160208610156200019f5750805b601f850160051c820191505b81811015620001c057828155600101620001ab565b5050505b505050565b81516001600160401b03811115620001e557620001e562000124565b620001fd81620001f684546200013a565b8462000176565b602080601f8311600181146200023557600084156200021c5750858301515b600019600386901b1c1916600185901b178555620001c0565b600085815260208120601f198616915b82811015620002665788860151825594840194600190910190840162000245565b5085821015620002855787850151600019600388901b60f8161c191681555b5050505050600190811b01905550565b6134d080620002a56000396000f3fe6080604052600436106102245760003560e01c806375f890ab11610123578063bef7143d116100ab578063d8eaae3c1161006f578063d8eaae3c1461068e578063e706a639146106a3578063e985e9c5146106c3578063f242432a1461070c578063f88e32041461072c57600080fd5b8063bef7143d146105ee578063c4f779771461060e578063d159a9421461062e578063d547741f1461065b578063d74ea3be1461067b57600080fd5b8063a217fddf116100f2578063a217fddf14610553578063a22cb46514610568578063a406370a14610588578063a5c42ef1146105b8578063b4b46d47146105ce57600080fd5b806375f890ab146104c65780638b4f0496146104e657806391d1485414610506578063a08eda5a1461052657600080fd5b80632eb2c2d6116101b15780634514939011610175578063451493901461040c5780634cf12d261461042c5780634e1273f41461044c57806361775eb01461047957806361d027b31461048e57600080fd5b80632eb2c2d6146103775780632f2ff15d1461039757806336568abe146103b75780633e9b347f146103d757806343770275146103ec57600080fd5b80630e89341c116101f85780630e89341c146102c35780631ccd7910146102f057806322b05ed2146103055780632426bb3814610325578063248a9ca31461034757600080fd5b8062fdd58e1461022957806301ffc9a71461025c57806306868c4b1461028c5780630cf0ac1d146102a1575b600080fd5b34801561023557600080fd5b506102496102443660046126bd565b61074e565b6040519081526020015b60405180910390f35b34801561026857600080fd5b5061027c6102773660046126fd565b6107e4565b6040519015158152602001610253565b61029f61029a3660046127cf565b6107f5565b005b3480156102ad57600080fd5b506102b6610967565b6040516102539190612867565b3480156102cf57600080fd5b506102e36102de3660046128c9565b610a95565b60405161025391906128e2565b3480156102fc57600080fd5b5061029f610b29565b34801561031157600080fd5b5061027c6103203660046127cf565b610ba8565b34801561033157600080fd5b5061024960008051602061342883398151915281565b34801561035357600080fd5b506102496103623660046128c9565b60009081526003602052604090206001015490565b34801561038357600080fd5b5061029f610392366004612989565b610c2a565b3480156103a357600080fd5b5061029f6103b2366004612a32565b610c76565b3480156103c357600080fd5b5061029f6103d2366004612a32565b610ca0565b3480156103e357600080fd5b5061029f610d1e565b3480156103f857600080fd5b5061029f6104073660046127cf565b610d9b565b34801561041857600080fd5b506102e36104273660046128c9565b610eb8565b34801561043857600080fd5b506102e36104473660046127cf565b610f52565b34801561045857600080fd5b5061046c610467366004612a5e565b610f94565b6040516102539190612b63565b34801561048557600080fd5b5061029f6110bd565b34801561049a57600080fd5b506006546104ae906001600160a01b031681565b6040516001600160a01b039091168152602001610253565b3480156104d257600080fd5b5061029f6104e1366004612b76565b6110d5565b3480156104f257600080fd5b506104ae610501366004612b91565b61114e565b34801561051257600080fd5b5061027c610521366004612a32565b611186565b34801561053257600080fd5b506105466105413660046127cf565b6111b1565b6040516102539190612bb3565b34801561055f57600080fd5b50610249600081565b34801561057457600080fd5b5061029f610583366004612c00565b61128a565b34801561059457600080fd5b5061027c6105a33660046128c9565b600b6020526000908152604090205460ff1681565b3480156105c457600080fd5b5061024960075481565b3480156105da57600080fd5b5061029f6105e93660046127cf565b611295565b3480156105fa57600080fd5b5061029f610609366004612c3c565b611521565b34801561061a57600080fd5b5061029f6106293660046127cf565b611674565b34801561063a57600080fd5b506102496106493660046128c9565b60096020526000908152604090205481565b34801561066757600080fd5b5061029f610676366004612a32565b6117f6565b61029f610689366004612c3c565b61181b565b34801561069a57600080fd5b5061029f6119af565b3480156106af57600080fd5b506102496106be3660046127cf565b6119c7565b3480156106cf57600080fd5b5061027c6106de366004612c80565b6001600160a01b03918216600090815260016020908152604080832093909416825291909152205460ff1690565b34801561071857600080fd5b5061029f610727366004612caa565b611a9a565b34801561073857600080fd5b5061024960008051602061340883398151915281565b60006001600160a01b0383166107be5760405162461bcd60e51b815260206004820152602a60248201527f455243313135353a2061646472657373207a65726f206973206e6f742061207660448201526930b634b21037bbb732b960b11b60648201526084015b60405180910390fd5b506000908152602081815260408083206001600160a01b03949094168352929052205490565b60006107ef82611adf565b92915050565b61080d60008051602061342883398151915233611186565b6108555760405162461bcd60e51b815260206004820152601960248201527821b0b63632b91034b9903737ba1030b71032b6b83637bcb2b960391b60448201526064016107b5565b600034116108755760405162461bcd60e51b81526004016107b590612d0e565b60065460075460408051602081019091526000815234926108a4926001600160a01b0390911691600190611b04565b6006546040516001600160a01b039091169082156108fc029083906000818181858888f193505050501580156108de573d6000803e3d6000fd5b5060075460009081526008602052604090206108fa8382612dcd565b506007805460009081526009602052604090819020839055905490517fd03c9595063e238ef5abf908f74cfe2963bc5c60cde40d8f99f13d8bc6cd9be291610946918591908590612e8c565b60405180910390a16007805490600061095e83612ec7565b91905055505050565b606060006007546001600160401b038111156109855761098561271a565b6040519080825280602002602001820160405280156109b857816020015b60608152602001906001900390816109a35790505b50905060005b600754811015610a8f57600081815260086020526040902080546109e190612d53565b80601f0160208091040260200160405190810160405280929190818152602001828054610a0d90612d53565b8015610a5a5780601f10610a2f57610100808354040283529160200191610a5a565b820191906000526020600020905b815481529060010190602001808311610a3d57829003601f168201915b5050505050828281518110610a7157610a71612ee0565b60200260200101819052508080610a8790612ec7565b9150506109be565b50919050565b606060028054610aa490612d53565b80601f0160208091040260200160405190810160405280929190818152602001828054610ad090612d53565b8015610b1d5780601f10610af257610100808354040283529160200191610b1d565b820191906000526020600020905b815481529060010190602001808311610b0057829003601f168201915b50505050509050919050565b610b4160008051602061342883398151915233611186565b15610b8e5760405162461bcd60e51b815260206004820152601d60248201527f43616c6c657220697320616c726561647920616e20656d706c6f79657200000060448201526064016107b5565b610ba660008051602061340883398151915233611c0f565b565b60405163e706a63960e01b81526000908190309063e706a63990610bd09086906004016128e2565b602060405180830381865afa158015610bed573d6000803e3d6000fd5b505050506040513d601f19601f82011682018060405250810190610c119190612ef6565b6000908152600b602052604090205460ff169392505050565b6001600160a01b038516331480610c465750610c4685336106de565b610c625760405162461bcd60e51b81526004016107b590612f0f565b610c6f8585858585611c19565b5050505050565b600082815260036020526040902060010154610c9181611df6565b610c9b8383611e03565b505050565b6001600160a01b0381163314610d105760405162461bcd60e51b815260206004820152602f60248201527f416363657373436f6e74726f6c3a2063616e206f6e6c792072656e6f756e636560448201526e103937b632b9903337b91039b2b63360891b60648201526084016107b5565b610d1a8282611e89565b5050565b610d3660008051602061340883398151915233611186565b15610d835760405162461bcd60e51b815260206004820152601e60248201527f43616c6c657220697320616c7265616479206120636f6e74726163746f72000060448201526064016107b5565b610ba660008051602061342883398151915233611c0f565b610db360008051602061340883398151915233611186565b610dcf5760405162461bcd60e51b81526004016107b590612f5d565b60405163e706a63960e01b8152600090309063e706a63990610df59085906004016128e2565b602060405180830381865afa158015610e12573d6000803e3d6000fd5b505050506040513d601f19601f82011682018060405250810190610e369190612ef6565b6000818152600a6020908152604080832080546001810182559084528284200180546001600160a01b03191633179055838352600882528083206009909252918290205491519293507fc7f5957ad976140878015d285fd47bebc799a9a4a33a8b17efd687a9b1434a3092610eac928591612f94565b60405180910390a15050565b60086020526000908152604090208054610ed190612d53565b80601f0160208091040260200160405190810160405280929190818152602001828054610efd90612d53565b8015610f4a5780601f10610f1f57610100808354040283529160200191610f4a565b820191906000526020600020905b815481529060010190602001808311610f2d57829003601f168201915b505050505081565b60606107ef604051806080016040528060538152602001613448605391398360405180604001604052806005815260200164173539b7b760d91b815250611ef0565b60608151835114610ff95760405162461bcd60e51b815260206004820152602960248201527f455243313135353a206163636f756e747320616e6420696473206c656e677468604482015268040dad2e6dac2e8c6d60bb1b60648201526084016107b5565b600083516001600160401b038111156110145761101461271a565b60405190808252806020026020018201604052801561103d578160200160208202803683370190505b50905060005b84518110156110b55761108885828151811061106157611061612ee0565b602002602001015185838151811061107b5761107b612ee0565b602002602001015161074e565b82828151811061109a5761109a612ee0565b60209081029190910101526110ae81612ec7565b9050611043565b509392505050565b610ba6600080516020613408833981519152336117f6565b6110e0600033611186565b61112c5760405162461bcd60e51b815260206004820152601760248201527f43616c6c6572206973206e6f74207468652061646d696e00000000000000000060448201526064016107b5565b600680546001600160a01b0319166001600160a01b0392909216919091179055565b600a602052816000526040600020818154811061116a57600080fd5b6000918252602090912001546001600160a01b03169150829050565b60009182526003602090815260408084206001600160a01b0393909316845291905290205460ff1690565b60405163e706a63960e01b8152606090600090309063e706a639906111da9086906004016128e2565b602060405180830381865afa1580156111f7573d6000803e3d6000fd5b505050506040513d601f19601f8201168201806040525081019061121b9190612ef6565b6000818152600a6020908152604091829020805483518184028101840190945280845293945091929083018282801561127d57602002820191906000526020600020905b81546001600160a01b0316815260019091019060200180831161125f575b5050505050915050919050565b610d1a338383611f1f565b6112ad60008051602061340883398151915233611186565b6112c95760405162461bcd60e51b81526004016107b590612f5d565b60405163e706a63960e01b8152600090309063e706a639906112ef9085906004016128e2565b602060405180830381865afa15801561130c573d6000803e3d6000fd5b505050506040513d601f19601f820116820180604052508101906113309190612ef6565b6000818152600a602090815260408083208054825181850281018501909352808352949550929390929183018282801561139357602002820191906000526020600020905b81546001600160a01b03168152600190910190602001808311611375575b509394506000935050505060005b82518110156113e9576113cd8382815181106113bf576113bf612ee0565b602002602001015133611fff565b156113d757600191505b806113e181612ec7565b9150506113a1565b50806114375760405162461bcd60e51b815260206004820152601e60248201527f43616c6c6572206973206e6f74206120626f756e747920636c61696d6572000060448201526064016107b5565b6000838152600b602052604090205460ff166114655760405162461bcd60e51b81526004016107b59061302a565b60065460405163f3fef3a360e01b8152336004820152602481018590526001600160a01b039091169063f3fef3a390604401600060405180830381600087803b1580156114b157600080fd5b505af11580156114c5573d6000803e3d6000fd5b50505060008481526008602090815260408083206009909252918290205491517ff9d5b8621260e8c7e877bcee0fc9f0e573e710ba890884275d67dcfc19e0b0569350611513928791612f94565b60405180910390a150505050565b61153960008051602061342883398151915233611186565b6115855760405162461bcd60e51b815260206004820152601860248201527f43616c6c6572206973206e6f74206120656d706c6f796572000000000000000060448201526064016107b5565b60405163e706a63960e01b8152600090309063e706a639906115ab9086906004016128e2565b602060405180830381865afa1580156115c8573d6000803e3d6000fd5b505050506040513d601f19601f820116820180604052508101906115ec9190612ef6565b6000818152600b602052604090819020805460ff19166001179055600654905163131f8abb60e31b81526001600160a01b038581166004830152602482018490529293509116906398fc55d8906044015b600060405180830381600087803b15801561165757600080fd5b505af115801561166b573d6000803e3d6000fd5b50505050505050565b61168c60008051602061340883398151915233611186565b6116a85760405162461bcd60e51b81526004016107b590612f5d565b60405163e706a63960e01b8152600090309063e706a639906116ce9085906004016128e2565b602060405180830381865afa1580156116eb573d6000803e3d6000fd5b505050506040513d601f19601f8201168201806040525081019061170f9190612ef6565b6000818152600b602052604090205490915060ff166117405760405162461bcd60e51b81526004016107b59061302a565b600161174c338361074e565b10156117a85760405162461bcd60e51b815260206004820152602560248201527f596f752068617665206e6f7420636f6d706c657465642074686520426f756e746044820152641e481e595d60da1b60648201526084016107b5565b60008181526009602052604090819020546006549151631f58fee360e11b8152336004820152602481018490526044810182905290916001600160a01b031690633eb1fdc69060640161163d565b60008281526003602052604090206001015461181181611df6565b610c9b8383611e89565b61183360008051602061342883398151915233611186565b61187b5760405162461bcd60e51b815260206004820152601960248201527821b0b63632b91034b9903737ba1030b71032b6b83637bcb2b960391b60448201526064016107b5565b6000341161189b5760405162461bcd60e51b81526004016107b590612d0e565b60065460075460408051602081019091526000815234926118ca926001600160a01b0390911691600190611b04565b6006546040516001600160a01b039091169082156108fc029083906000818181858888f19350505050158015611904573d6000803e3d6000fd5b5060075460009081526008602052604090206119208482612dcd565b507fd03c9595063e238ef5abf908f74cfe2963bc5c60cde40d8f99f13d8bc6cd9be2836007548360405161195693929190612e8c565b60405180910390a16007805490600061196e83612ec7565b909155505060065460075460405163131f8abb60e31b81526001600160a01b03858116600483015260248201929092529116906398fc55d89060440161163d565b610ba6600080516020613428833981519152336117f6565b60008060005b6007548111611a935760008181526008602052604090208054611a7891906119f490612d53565b80601f0160208091040260200160405190810160405280929190818152602001828054611a2090612d53565b8015611a6d5780601f10611a4257610100808354040283529160200191611a6d565b820191906000526020600020905b815481529060010190602001808311611a5057829003601f168201915b50505050508561207f565b15611a81578091505b80611a8b81612ec7565b9150506119cd565b5092915050565b6001600160a01b038516331480611ab65750611ab685336106de565b611ad25760405162461bcd60e51b81526004016107b590612f0f565b610c6f85858585856120b9565b60006001600160e01b03198216637965db0b60e01b14806107ef57506107ef826121e3565b6001600160a01b038416611b645760405162461bcd60e51b815260206004820152602160248201527f455243313135353a206d696e7420746f20746865207a65726f206164647265736044820152607360f81b60648201526084016107b5565b336000611b7085612233565b90506000611b7d85612233565b90506000868152602081815260408083206001600160a01b038b16845290915281208054879290611baf90849061307b565b909155505060408051878152602081018790526001600160a01b03808a1692600092918716917fc3d58168c5ae7397731d063d5bbf3d657854427343f4c083240f7aacaa2d0f62910160405180910390a461166b8360008989898961227e565b610d1a8282611e03565b8151835114611c7b5760405162461bcd60e51b815260206004820152602860248201527f455243313135353a2069647320616e6420616d6f756e7473206c656e677468206044820152670dad2e6dac2e8c6d60c31b60648201526084016107b5565b6001600160a01b038416611ca15760405162461bcd60e51b81526004016107b590613093565b3360005b8451811015611d88576000858281518110611cc257611cc2612ee0565b602002602001015190506000858381518110611ce057611ce0612ee0565b602090810291909101810151600084815280835260408082206001600160a01b038e168352909352919091205490915081811015611d305760405162461bcd60e51b81526004016107b5906130d8565b6000838152602081815260408083206001600160a01b038e8116855292528083208585039055908b16825281208054849290611d6d90849061307b565b9250508190555050505080611d8190612ec7565b9050611ca5565b50846001600160a01b0316866001600160a01b0316826001600160a01b03167f4a39dc06d4c0dbc64b70af90fd698a233a518aa5d07e595d983b8c0526c8f7fb8787604051611dd8929190613122565b60405180910390a4611dee8187878787876123d9565b505050505050565b611e008133612494565b50565b611e0d8282611186565b610d1a5760008281526003602090815260408083206001600160a01b03851684529091529020805460ff19166001179055611e453390565b6001600160a01b0316816001600160a01b0316837f2f8788117e7eff1d82e926ec794901d17c78024a50270940304540a733656f0d60405160405180910390a45050565b611e938282611186565b15610d1a5760008281526003602090815260408083206001600160a01b0385168085529252808320805460ff1916905551339285917ff6391f5c32d9c69d2a47ea670b442974b53935d1edc7fd64eb21e047a839171b9190a45050565b6060838383604051602001611f0793929190613150565b60405160208183030381529060405290509392505050565b816001600160a01b0316836001600160a01b031603611f925760405162461bcd60e51b815260206004820152602960248201527f455243313135353a2073657474696e6720617070726f76616c20737461747573604482015268103337b91039b2b63360b91b60648201526084016107b5565b6001600160a01b03838116600081815260016020908152604080832094871680845294825291829020805460ff191686151590811790915591519182527f17307eab39ab6107e8899845ad3d59bd9653f200f220920489ca2b5937696c31910160405180910390a3505050565b6040516bffffffffffffffffffffffff19606083901b1660208201526000906034016040516020818303038152906040528051906020012083604051602001612060919060609190911b6bffffffffffffffffffffffff1916815260140190565b6040516020818303038152906040528051906020012014905092915050565b6000816040516020016120929190613193565b60405160208183030381529060405280519060200120836040516020016120609190613193565b6001600160a01b0384166120df5760405162461bcd60e51b81526004016107b590613093565b3360006120eb85612233565b905060006120f885612233565b90506000868152602081815260408083206001600160a01b038c1684529091529020548581101561213b5760405162461bcd60e51b81526004016107b5906130d8565b6000878152602081815260408083206001600160a01b038d8116855292528083208985039055908a1682528120805488929061217890849061307b565b909155505060408051888152602081018890526001600160a01b03808b16928c821692918816917fc3d58168c5ae7397731d063d5bbf3d657854427343f4c083240f7aacaa2d0f62910160405180910390a46121d8848a8a8a8a8a61227e565b505050505050505050565b60006001600160e01b03198216636cdb3d1360e11b148061221457506001600160e01b031982166303a24d0760e21b145b806107ef57506301ffc9a760e01b6001600160e01b03198316146107ef565b6040805160018082528183019092526060916000919060208083019080368337019050509050828160008151811061226d5761226d612ee0565b602090810291909101015292915050565b6001600160a01b0384163b15611dee5760405163f23a6e6160e01b81526001600160a01b0385169063f23a6e61906122c290899089908890889088906004016131af565b6020604051808303816000875af19250505080156122fd575060408051601f3d908101601f191682019092526122fa918101906131f4565b60015b6123a957612309613211565b806308c379a003612342575061231d61322d565b806123285750612344565b8060405162461bcd60e51b81526004016107b591906128e2565b505b60405162461bcd60e51b815260206004820152603460248201527f455243313135353a207472616e7366657220746f206e6f6e2d455243313135356044820152732932b1b2b4bb32b91034b6b83632b6b2b73a32b960611b60648201526084016107b5565b6001600160e01b0319811663f23a6e6160e01b1461166b5760405162461bcd60e51b81526004016107b5906132b6565b6001600160a01b0384163b15611dee5760405163bc197c8160e01b81526001600160a01b0385169063bc197c819061241d90899089908890889088906004016132fe565b6020604051808303816000875af1925050508015612458575060408051601f3d908101601f19168201909252612455918101906131f4565b60015b61246457612309613211565b6001600160e01b0319811663bc197c8160e01b1461166b5760405162461bcd60e51b81526004016107b5906132b6565b61249e8282611186565b610d1a576124ab816124ed565b6124b68360206124ff565b6040516020016124c792919061335c565b60408051601f198184030181529082905262461bcd60e51b82526107b5916004016128e2565b60606107ef6001600160a01b03831660145b6060600061250e8360026133d1565b61251990600261307b565b6001600160401b038111156125305761253061271a565b6040519080825280601f01601f19166020018201604052801561255a576020820181803683370190505b509050600360fc1b8160008151811061257557612575612ee0565b60200101906001600160f81b031916908160001a905350600f60fb1b816001815181106125a4576125a4612ee0565b60200101906001600160f81b031916908160001a90535060006125c88460026133d1565b6125d390600161307b565b90505b600181111561264b576f181899199a1a9b1b9c1cb0b131b232b360811b85600f166010811061260757612607612ee0565b1a60f81b82828151811061261d5761261d612ee0565b60200101906001600160f81b031916908160001a90535060049490941c93612644816133f0565b90506125d6565b50831561269a5760405162461bcd60e51b815260206004820181905260248201527f537472696e67733a20686578206c656e67746820696e73756666696369656e7460448201526064016107b5565b9392505050565b80356001600160a01b03811681146126b857600080fd5b919050565b600080604083850312156126d057600080fd5b6126d9836126a1565b946020939093013593505050565b6001600160e01b031981168114611e0057600080fd5b60006020828403121561270f57600080fd5b813561269a816126e7565b634e487b7160e01b600052604160045260246000fd5b601f8201601f191681016001600160401b03811182821017156127555761275561271a565b6040525050565b600082601f83011261276d57600080fd5b81356001600160401b038111156127865761278661271a565b60405161279d601f8301601f191660200182612730565b8181528460208386010111156127b257600080fd5b816020850160208301376000918101602001919091529392505050565b6000602082840312156127e157600080fd5b81356001600160401b038111156127f757600080fd5b6128038482850161275c565b949350505050565b60005b8381101561282657818101518382015260200161280e565b83811115612835576000848401525b50505050565b6000815180845261285381602086016020860161280b565b601f01601f19169290920160200192915050565b6000602080830181845280855180835260408601915060408160051b870101925083870160005b828110156128bc57603f198886030184526128aa85835161283b565b9450928501929085019060010161288e565b5092979650505050505050565b6000602082840312156128db57600080fd5b5035919050565b60208152600061269a602083018461283b565b60006001600160401b0382111561290e5761290e61271a565b5060051b60200190565b600082601f83011261292957600080fd5b81356020612936826128f5565b6040516129438282612730565b83815260059390931b850182019282810191508684111561296357600080fd5b8286015b8481101561297e5780358352918301918301612967565b509695505050505050565b600080600080600060a086880312156129a157600080fd5b6129aa866126a1565b94506129b8602087016126a1565b935060408601356001600160401b03808211156129d457600080fd5b6129e089838a01612918565b945060608801359150808211156129f657600080fd5b612a0289838a01612918565b93506080880135915080821115612a1857600080fd5b50612a258882890161275c565b9150509295509295909350565b60008060408385031215612a4557600080fd5b82359150612a55602084016126a1565b90509250929050565b60008060408385031215612a7157600080fd5b82356001600160401b0380821115612a8857600080fd5b818501915085601f830112612a9c57600080fd5b81356020612aa9826128f5565b604051612ab68282612730565b83815260059390931b8501820192828101915089841115612ad657600080fd5b948201945b83861015612afb57612aec866126a1565b82529482019490820190612adb565b96505086013592505080821115612b1157600080fd5b50612b1e85828601612918565b9150509250929050565b600081518084526020808501945080840160005b83811015612b5857815187529582019590820190600101612b3c565b509495945050505050565b60208152600061269a6020830184612b28565b600060208284031215612b8857600080fd5b61269a826126a1565b60008060408385031215612ba457600080fd5b50508035926020909101359150565b6020808252825182820181905260009190848201906040850190845b81811015612bf45783516001600160a01b031683529284019291840191600101612bcf565b50909695505050505050565b60008060408385031215612c1357600080fd5b612c1c836126a1565b915060208301358015158114612c3157600080fd5b809150509250929050565b60008060408385031215612c4f57600080fd5b82356001600160401b03811115612c6557600080fd5b612c718582860161275c565b925050612a55602084016126a1565b60008060408385031215612c9357600080fd5b612c9c836126a1565b9150612a55602084016126a1565b600080600080600060a08688031215612cc257600080fd5b612ccb866126a1565b9450612cd9602087016126a1565b9350604086013592506060860135915060808601356001600160401b03811115612d0257600080fd5b612a258882890161275c565b60208082526025908201527f506c6561736520646566696e6520612072657761726420666f722074686520426040820152646f756e747960d81b606082015260800190565b600181811c90821680612d6757607f821691505b602082108103610a8f57634e487b7160e01b600052602260045260246000fd5b601f821115610c9b57600081815260208120601f850160051c81016020861015612dae5750805b601f850160051c820191505b81811015611dee57828155600101612dba565b81516001600160401b03811115612de657612de661271a565b612dfa81612df48454612d53565b84612d87565b602080601f831160018114612e2f5760008415612e175750858301515b600019600386901b1c1916600185901b178555611dee565b600085815260208120601f198616915b82811015612e5e57888601518255948401946001909101908401612e3f565b5085821015612e7c5787850151600019600388901b60f8161c191681555b5050505050600190811b01905550565b606081526000612e9f606083018661283b565b60208301949094525060400152919050565b634e487b7160e01b600052601160045260246000fd5b600060018201612ed957612ed9612eb1565b5060010190565b634e487b7160e01b600052603260045260246000fd5b600060208284031215612f0857600080fd5b5051919050565b6020808252602e908201527f455243313135353a2063616c6c6572206973206e6f7420746f6b656e206f776e60408201526d195c881bdc88185c1c1c9bdd995960921b606082015260800190565b6020808252601a908201527f43616c6c6572206973206e6f74206120636f6e74726163746f72000000000000604082015260600190565b606081526000808554612fa681612d53565b8060608601526080600180841660008114612fc85760018114612fe257613013565b60ff1985168884015283151560051b880183019550613013565b8a60005260208060002060005b8681101561300a5781548b8201870152908401908201612fef565b8a018501975050505b505050505060208301949094525060400152919050565b60208082526031908201527f426f756e747920636f6d706c6574696f6e206973206e6f7420617070726f76656040820152703210313c903a34329032b6b83637bcb2b960791b606082015260800190565b6000821982111561308e5761308e612eb1565b500190565b60208082526025908201527f455243313135353a207472616e7366657220746f20746865207a65726f206164604082015264647265737360d81b606082015260800190565b6020808252602a908201527f455243313135353a20696e73756666696369656e742062616c616e636520666f60408201526939103a3930b739b332b960b11b606082015260800190565b6040815260006131356040830185612b28565b82810360208401526131478185612b28565b95945050505050565b6000845161316281846020890161280b565b84519083019061317681836020890161280b565b845191019061318981836020880161280b565b0195945050505050565b600082516131a581846020870161280b565b9190910192915050565b6001600160a01b03868116825285166020820152604081018490526060810183905260a0608082018190526000906131e99083018461283b565b979650505050505050565b60006020828403121561320657600080fd5b815161269a816126e7565b600060033d111561322a5760046000803e5060005160e01c5b90565b600060443d101561323b5790565b6040516003193d81016004833e81513d6001600160401b03816024840111818411171561326a57505050505090565b82850191508151818111156132825750505050505090565b843d870101602082850101111561329c5750505050505090565b6132ab60208286010187612730565b509095945050505050565b60208082526028908201527f455243313135353a204552433131353552656365697665722072656a656374656040820152676420746f6b656e7360c01b606082015260800190565b6001600160a01b0386811682528516602082015260a06040820181905260009061332a90830186612b28565b828103606084015261333c8186612b28565b90508281036080840152613350818561283b565b98975050505050505050565b7f416363657373436f6e74726f6c3a206163636f756e742000000000000000000081526000835161339481601785016020880161280b565b7001034b99036b4b9b9b4b733903937b6329607d1b60179184019182015283516133c581602884016020880161280b565b01602801949350505050565b60008160001904831182151516156133eb576133eb612eb1565b500290565b6000816133ff576133ff612eb1565b50600019019056feef28dcbf06eb73add8f77665c46a6263e719f928f9c34710ec1097573ba6e20cfc7c36207174f786648d2e624616a4b40e15fd7f0268b4e36af5057f0c43c83568747470733a2f2f697066732e696f2f69706e732f6b3531717a693575717535646969746272306b7977326a7574357a36643036686d39323374316d71617967756477347a663275316f636269703838696571a2646970667358221220144406e28e5a9e533849b05f029acbaa566101f27fa6fefa2602154d593625a364736f6c634300080f003368747470733a2f2f697066732e696f2f69706e732f6b3531717a693575717535646969746272306b7977326a7574357a36643036686d39323374316d71617967756477347a663275316f6362697038386965712f7b69647d2e6a736f6e",
    "linkReferences": {}
  },
  "methodIdentifiers": {
    "CONTRACTOR_ROLE()": "f88e3204",
    "DEFAULT_ADMIN_ROLE()": "a217fddf",
    "EMPLOYER_ROLE()": "2426bb38",
    "approveCompletedTask(string,address)": "bef7143d",
    "balanceOf(address,uint256)": "00fdd58e",
    "balanceOfBatch(address[],uint256[])": "4e1273f4",
    "claimTask(string)": "43770275",
    "claimFunds(string)": "c4f77977",
    "completeTask(string)": "b4b46d47",
    "createTask(string)": "06868c4b",
    "createPrivateTask(string,address)": "d74ea3be",
    "getTasks()": "0cf0ac1d",
    "getClaimers(string)": "a08eda5a",
    "getRoleAdmin(bytes32)": "248a9ca3",
    "getStatus(string)": "22b05ed2",
    "getTokenID(string)": "e706a639",
    "grantRole(bytes32,address)": "2f2ff15d",
    "grantRoleContractor()": "1ccd7910",
    "grantRoleEmployer()": "3e9b347f",
    "hasRole(bytes32,address)": "91d14854",
    "isApprovedForAll(address,address)": "e985e9c5",
    "renounceRole(bytes32,address)": "36568abe",
    "revokeRole(bytes32,address)": "d547741f",
    "revokeRoleContractor()": "61775eb0",
    "revokeRoleEmployer()": "d8eaae3c",
    "safeBatchTransferFrom(address,address,uint256[],uint256[],bytes)": "2eb2c2d6",
    "safeTransferFrom(address,address,uint256,uint256,bytes)": "f242432a",
    "setApprovalForAll(address,bool)": "a22cb465",
    "setContract(address)": "75f890ab",
    "supportsInterface(bytes4)": "01ffc9a7",
    "tokenID()": "a5c42ef1",
    "tokenIDtoClaimers(uint256,uint256)": "8b4f0496",
    "tokenIDtoDone(uint256)": "a406370a",
    "tokenIDtoIPFS(uint256)": "45149390",
    "tokenIDtoReward(uint256)": "d159a942",
    "tokenURI(string)": "4cf12d26",
    "treasury()": "61d027b3",
    "uri(uint256)": "0e89341c"
  },
  "id": 23
}