{
  "abi": [
    {
      "inputs": [
        {
          "internalType": "address",
          "name": "addr1",
          "type": "address"
        },
        {
          "internalType": "address",
          "name": "addr2",
          "type": "address"
        }
      ],
      "stateMutability": "nonpayable",
      "type": "constructor"
    },
    {
      "anonymous": false,
      "inputs": [
        {
          "indexed": true,
          "internalType": "address",
          "name": "account",
          "type": "address"
        },
        {
          "indexed": true,
          "internalType": "address",
          "name": "operator",
          "type": "address"
        },
        {
          "indexed": false,
          "internalType": "bool",
          "name": "approved",
          "type": "bool"
        }
      ],
      "name": "ApprovalForAll",
      "type": "event"
    },
    {
      "anonymous": false,
      "inputs": [
        {
          "indexed": false,
          "internalType": "string",
          "name": "_ipfsID",
          "type": "string"
        },
        {
          "indexed": false,
          "internalType": "uint256",
          "name": "_tokenID",
          "type": "uint256"
        },
        {
          "indexed": false,
          "internalType": "uint256",
          "name": "_reward",
          "type": "uint256"
        }
      ],
      "name": "TaskCancelled",
      "type": "event"
    },
    {
      "anonymous": false,
      "inputs": [
        {
          "indexed": false,
          "internalType": "string",
          "name": "_ipfsID",
          "type": "string"
        },
        {
          "indexed": false,
          "internalType": "uint256",
          "name": "_tokenID",
          "type": "uint256"
        },
        {
          "indexed": false,
          "internalType": "uint256",
          "name": "_reward",
          "type": "uint256"
        }
      ],
      "name": "TaskClaimed",
      "type": "event"
    },
    {
      "anonymous": false,
      "inputs": [
        {
          "indexed": false,
          "internalType": "string",
          "name": "_ipfsID",
          "type": "string"
        },
        {
          "indexed": false,
          "internalType": "uint256",
          "name": "_tokenID",
          "type": "uint256"
        },
        {
          "indexed": false,
          "internalType": "uint256",
          "name": "_reward",
          "type": "uint256"
        }
      ],
      "name": "TaskCompleted",
      "type": "event"
    },
    {
      "anonymous": false,
      "inputs": [
        {
          "indexed": false,
          "internalType": "string",
          "name": "_ipfsID",
          "type": "string"
        },
        {
          "indexed": false,
          "internalType": "uint256",
          "name": "_tokenID",
          "type": "uint256"
        },
        {
          "indexed": false,
          "internalType": "uint256",
          "name": "_reward",
          "type": "uint256"
        }
      ],
      "name": "TaskCreated",
      "type": "event"
    },
    {
      "anonymous": false,
      "inputs": [
        {
          "indexed": false,
          "internalType": "string",
          "name": "_value",
          "type": "string"
        },
        {
          "indexed": true,
          "internalType": "uint256",
          "name": "_id",
          "type": "uint256"
        }
      ],
      "name": "PermanentURI",
      "type": "event"
    },
    {
      "anonymous": false,
      "inputs": [
        {
          "indexed": true,
          "internalType": "bytes32",
          "name": "role",
          "type": "bytes32"
        },
        {
          "indexed": true,
          "internalType": "bytes32",
          "name": "previousAdminRole",
          "type": "bytes32"
        },
        {
          "indexed": true,
          "internalType": "bytes32",
          "name": "newAdminRole",
          "type": "bytes32"
        }
      ],
      "name": "RoleAdminChanged",
      "type": "event"
    },
    {
      "anonymous": false,
      "inputs": [
        {
          "indexed": true,
          "internalType": "bytes32",
          "name": "role",
          "type": "bytes32"
        },
        {
          "indexed": true,
          "internalType": "address",
          "name": "account",
          "type": "address"
        },
        {
          "indexed": true,
          "internalType": "address",
          "name": "sender",
          "type": "address"
        }
      ],
      "name": "RoleGranted",
      "type": "event"
    },
    {
      "anonymous": false,
      "inputs": [
        {
          "indexed": true,
          "internalType": "bytes32",
          "name": "role",
          "type": "bytes32"
        },
        {
          "indexed": true,
          "internalType": "address",
          "name": "account",
          "type": "address"
        },
        {
          "indexed": true,
          "internalType": "address",
          "name": "sender",
          "type": "address"
        }
      ],
      "name": "RoleRevoked",
      "type": "event"
    },
    {
      "anonymous": false,
      "inputs": [
        {
          "indexed": true,
          "internalType": "address",
          "name": "operator",
          "type": "address"
        },
        {
          "indexed": true,
          "internalType": "address",
          "name": "from",
          "type": "address"
        },
        {
          "indexed": true,
          "internalType": "address",
          "name": "to",
          "type": "address"
        },
        {
          "indexed": false,
          "internalType": "uint256[]",
          "name": "ids",
          "type": "uint256[]"
        },
        {
          "indexed": false,
          "internalType": "uint256[]",
          "name": "values",
          "type": "uint256[]"
        }
      ],
      "name": "TransferBatch",
      "type": "event"
    },
    {
      "anonymous": false,
      "inputs": [
        {
          "indexed": true,
          "internalType": "address",
          "name": "operator",
          "type": "address"
        },
        {
          "indexed": true,
          "internalType": "address",
          "name": "from",
          "type": "address"
        },
        {
          "indexed": true,
          "internalType": "address",
          "name": "to",
          "type": "address"
        },
        {
          "indexed": false,
          "internalType": "uint256",
          "name": "id",
          "type": "uint256"
        },
        {
          "indexed": false,
          "internalType": "uint256",
          "name": "value",
          "type": "uint256"
        }
      ],
      "name": "TransferSingle",
      "type": "event"
    },
    {
      "anonymous": false,
      "inputs": [
        {
          "indexed": false,
          "internalType": "string",
          "name": "value",
          "type": "string"
        },
        {
          "indexed": true,
          "internalType": "uint256",
          "name": "id",
          "type": "uint256"
        }
      ],
      "name": "URI",
      "type": "event"
    },
    {
      "inputs": [],
      "name": "CONTRACTOR_ROLE",
      "outputs": [
        {
          "internalType": "bytes32",
          "name": "",
          "type": "bytes32"
        }
      ],
      "stateMutability": "view",
      "type": "function"
    },
    {
      "inputs": [],
      "name": "DEFAULT_ADMIN_ROLE",
      "outputs": [
        {
          "internalType": "bytes32",
          "name": "",
          "type": "bytes32"
        }
      ],
      "stateMutability": "view",
      "type": "function"
    },
    {
      "inputs": [],
      "name": "EMPLOYER_ROLE",
      "outputs": [
        {
          "internalType": "bytes32",
          "name": "",
          "type": "bytes32"
        }
      ],
      "stateMutability": "view",
      "type": "function"
    },
    {
      "inputs": [
        {
          "internalType": "address",
          "name": "account",
          "type": "address"
        }
      ],
      "name": "addressToString",
      "outputs": [
        {
          "internalType": "string",
          "name": "",
          "type": "string"
        }
      ],
      "stateMutability": "pure",
      "type": "function"
    },
    {
      "inputs": [
        {
          "internalType": "string",
          "name": "ipfsID",
          "type": "string"
        },
        {
          "internalType": "address",
          "name": "contractor",
          "type": "address"
        }
      ],
      "name": "approveCompletedTask",
      "outputs": [],
      "stateMutability": "nonpayable",
      "type": "function"
    },
    {
      "inputs": [
        {
          "internalType": "uint256",
          "name": "",
          "type": "uint256"
        }
      ],
      "name": "approvedTask",
      "outputs": [
        {
          "internalType": "bool",
          "name": "",
          "type": "bool"
        }
      ],
      "stateMutability": "view",
      "type": "function"
    },
    {
      "inputs": [
        {
          "internalType": "address",
          "name": "account",
          "type": "address"
        },
        {
          "internalType": "uint256",
          "name": "id",
          "type": "uint256"
        }
      ],
      "name": "balanceOf",
      "outputs": [
        {
          "internalType": "uint256",
          "name": "",
          "type": "uint256"
        }
      ],
      "stateMutability": "view",
      "type": "function"
    },
    {
      "inputs": [
        {
          "internalType": "address[]",
          "name": "accounts",
          "type": "address[]"
        },
        {
          "internalType": "uint256[]",
          "name": "ids",
          "type": "uint256[]"
        }
      ],
      "name": "balanceOfBatch",
      "outputs": [
        {
          "internalType": "uint256[]",
          "name": "",
          "type": "uint256[]"
        }
      ],
      "stateMutability": "view",
      "type": "function"
    },
    {
      "inputs": [],
      "name": "bstoken",
      "outputs": [
        {
          "internalType": "address",
          "name": "",
          "type": "address"
        }
      ],
      "stateMutability": "view",
      "type": "function"
    },
    {
      "inputs": [
        {
          "internalType": "string",
          "name": "ipfsID",
          "type": "string"
        }
      ],
      "name": "claimTask",
      "outputs": [],
      "stateMutability": "nonpayable",
      "type": "function"
    },
    {
      "inputs": [
        {
          "internalType": "string",
          "name": "ipfsID",
          "type": "string"
        }
      ],
      "name": "claimFunds",
      "outputs": [],
      "stateMutability": "nonpayable",
      "type": "function"
    },
    {
      "inputs": [
        {
          "internalType": "string",
          "name": "",
          "type": "string"
        }
      ],
      "name": "claimedTask",
      "outputs": [
        {
          "internalType": "bool",
          "name": "",
          "type": "bool"
        }
      ],
      "stateMutability": "view",
      "type": "function"
    },
    {
      "inputs": [
        {
          "internalType": "uint256",
          "name": "",
          "type": "uint256"
        }
      ],
      "name": "claimedReward",
      "outputs": [
        {
          "internalType": "bool",
          "name": "",
          "type": "bool"
        }
      ],
      "stateMutability": "view",
      "type": "function"
    },
    {
      "inputs": [
        {
          "internalType": "string",
          "name": "ipfsID",
          "type": "string"
        }
      ],
      "name": "completeTask",
      "outputs": [],
      "stateMutability": "nonpayable",
      "type": "function"
    },
    {
      "inputs": [
        {
          "internalType": "uint256",
          "name": "",
          "type": "uint256"
        }
      ],
      "name": "completedTask",
      "outputs": [
        {
          "internalType": "bool",
          "name": "",
          "type": "bool"
        }
      ],
      "stateMutability": "view",
      "type": "function"
    },
    {
      "inputs": [
        {
          "internalType": "string",
          "name": "ipfsID",
          "type": "string"
        }
      ],
      "name": "createTask",
      "outputs": [],
      "stateMutability": "payable",
      "type": "function"
    },
    {
      "inputs": [
        {
          "internalType": "string",
          "name": "ipfsID",
          "type": "string"
        },
        {
          "internalType": "address",
          "name": "contractor",
          "type": "address"
        }
      ],
      "name": "createPrivateTask",
      "outputs": [],
      "stateMutability": "payable",
      "type": "function"
    },
    {
      "inputs": [
        {
          "internalType": "string",
          "name": "ipfsID",
          "type": "string"
        }
      ],
      "name": "deleteTask",
      "outputs": [],
      "stateMutability": "nonpayable",
      "type": "function"
    },
    {
      "inputs": [],
      "name": "getTasks",
      "outputs": [
        {
          "internalType": "string[]",
          "name": "",
          "type": "string[]"
        }
      ],
      "stateMutability": "view",
      "type": "function"
    },
    {
      "inputs": [
        {
          "internalType": "string",
          "name": "ipfsID",
          "type": "string"
        }
      ],
      "name": "getClaimers",
      "outputs": [
        {
          "internalType": "address[]",
          "name": "",
          "type": "address[]"
        }
      ],
      "stateMutability": "view",
      "type": "function"
    },
    {
      "inputs": [
        {
          "internalType": "bytes32",
          "name": "role",
          "type": "bytes32"
        }
      ],
      "name": "getRoleAdmin",
      "outputs": [
        {
          "internalType": "bytes32",
          "name": "",
          "type": "bytes32"
        }
      ],
      "stateMutability": "view",
      "type": "function"
    },
    {
      "inputs": [
        {
          "internalType": "string",
          "name": "ipfsID",
          "type": "string"
        }
      ],
      "name": "getStatus",
      "outputs": [
        {
          "internalType": "bool",
          "name": "",
          "type": "bool"
        }
      ],
      "stateMutability": "view",
      "type": "function"
    },
    {
      "inputs": [
        {
          "internalType": "string",
          "name": "ipfsID",
          "type": "string"
        }
      ],
      "name": "getTokenID",
      "outputs": [
        {
          "internalType": "uint256",
          "name": "",
          "type": "uint256"
        }
      ],
      "stateMutability": "view",
      "type": "function"
    },
    {
      "inputs": [
        {
          "internalType": "bytes32",
          "name": "role",
          "type": "bytes32"
        },
        {
          "internalType": "address",
          "name": "account",
          "type": "address"
        }
      ],
      "name": "grantRole",
      "outputs": [],
      "stateMutability": "nonpayable",
      "type": "function"
    },
    {
      "inputs": [],
      "name": "grantRoleContractor",
      "outputs": [],
      "stateMutability": "nonpayable",
      "type": "function"
    },
    {
      "inputs": [],
      "name": "grantRoleEmployer",
      "outputs": [],
      "stateMutability": "nonpayable",
      "type": "function"
    },
    {
      "inputs": [
        {
          "internalType": "bytes32",
          "name": "role",
          "type": "bytes32"
        },
        {
          "internalType": "address",
          "name": "account",
          "type": "address"
        }
      ],
      "name": "hasRole",
      "outputs": [
        {
          "internalType": "bool",
          "name": "",
          "type": "bool"
        }
      ],
      "stateMutability": "view",
      "type": "function"
    },
    {
      "inputs": [
        {
          "internalType": "address",
          "name": "account",
          "type": "address"
        },
        {
          "internalType": "address",
          "name": "operator",
          "type": "address"
        }
      ],
      "name": "isApprovedForAll",
      "outputs": [
        {
          "internalType": "bool",
          "name": "",
          "type": "bool"
        }
      ],
      "stateMutability": "view",
      "type": "function"
    },
    {
      "inputs": [
        {
          "internalType": "bytes32",
          "name": "role",
          "type": "bytes32"
        },
        {
          "internalType": "address",
          "name": "account",
          "type": "address"
        }
      ],
      "name": "renounceRole",
      "outputs": [],
      "stateMutability": "nonpayable",
      "type": "function"
    },
    {
      "inputs": [
        {
          "internalType": "bytes32",
          "name": "role",
          "type": "bytes32"
        },
        {
          "internalType": "address",
          "name": "account",
          "type": "address"
        }
      ],
      "name": "revokeRole",
      "outputs": [],
      "stateMutability": "nonpayable",
      "type": "function"
    },
    {
      "inputs": [
        {
          "internalType": "address",
          "name": "user",
          "type": "address"
        }
      ],
      "name": "revokeRoleContractor",
      "outputs": [],
      "stateMutability": "nonpayable",
      "type": "function"
    },
    {
      "inputs": [
        {
          "internalType": "address",
          "name": "user",
          "type": "address"
        }
      ],
      "name": "revokeRoleEmployer",
      "outputs": [],
      "stateMutability": "nonpayable",
      "type": "function"
    },
    {
      "inputs": [
        {
          "internalType": "address",
          "name": "from",
          "type": "address"
        },
        {
          "internalType": "address",
          "name": "to",
          "type": "address"
        },
        {
          "internalType": "uint256[]",
          "name": "ids",
          "type": "uint256[]"
        },
        {
          "internalType": "uint256[]",
          "name": "amounts",
          "type": "uint256[]"
        },
        {
          "internalType": "bytes",
          "name": "data",
          "type": "bytes"
        }
      ],
      "name": "safeBatchTransferFrom",
      "outputs": [],
      "stateMutability": "nonpayable",
      "type": "function"
    },
    {
      "inputs": [
        {
          "internalType": "address",
          "name": "from",
          "type": "address"
        },
        {
          "internalType": "address",
          "name": "to",
          "type": "address"
        },
        {
          "internalType": "uint256",
          "name": "id",
          "type": "uint256"
        },
        {
          "internalType": "uint256",
          "name": "amount",
          "type": "uint256"
        },
        {
          "internalType": "bytes",
          "name": "data",
          "type": "bytes"
        }
      ],
      "name": "safeTransferFrom",
      "outputs": [],
      "stateMutability": "nonpayable",
      "type": "function"
    },
    {
      "inputs": [
        {
          "internalType": "address",
          "name": "operator",
          "type": "address"
        },
        {
          "internalType": "bool",
          "name": "approved",
          "type": "bool"
        }
      ],
      "name": "setApprovalForAll",
      "outputs": [],
      "stateMutability": "nonpayable",
      "type": "function"
    },
    {
      "inputs": [
        {
          "internalType": "bytes4",
          "name": "interfaceId",
          "type": "bytes4"
        }
      ],
      "name": "supportsInterface",
      "outputs": [
        {
          "internalType": "bool",
          "name": "",
          "type": "bool"
        }
      ],
      "stateMutability": "view",
      "type": "function"
    },
    {
      "inputs": [],
      "name": "tokenID",
      "outputs": [
        {
          "internalType": "uint256",
          "name": "",
          "type": "uint256"
        }
      ],
      "stateMutability": "view",
      "type": "function"
    },
    {
      "inputs": [
        {
          "internalType": "uint256",
          "name": "",
          "type": "uint256"
        },
        {
          "internalType": "uint256",
          "name": "",
          "type": "uint256"
        }
      ],
      "name": "tokenIDtoClaimers",
      "outputs": [
        {
          "internalType": "address",
          "name": "",
          "type": "address"
        }
      ],
      "stateMutability": "view",
      "type": "function"
    },
    {
      "inputs": [
        {
          "internalType": "uint256",
          "name": "",
          "type": "uint256"
        }
      ],
      "name": "tokenIDtoDone",
      "outputs": [
        {
          "internalType": "bool",
          "name": "",
          "type": "bool"
        }
      ],
      "stateMutability": "view",
      "type": "function"
    },
    {
      "inputs": [
        {
          "internalType": "uint256",
          "name": "",
          "type": "uint256"
        }
      ],
      "name": "tokenIDtoIPFS",
      "outputs": [
        {
          "internalType": "string",
          "name": "",
          "type": "string"
        }
      ],
      "stateMutability": "view",
      "type": "function"
    },
    {
      "inputs": [
        {
          "internalType": "uint256",
          "name": "",
          "type": "uint256"
        }
      ],
      "name": "tokenIDtoReward",
      "outputs": [
        {
          "internalType": "uint256",
          "name": "",
          "type": "uint256"
        }
      ],
      "stateMutability": "view",
      "type": "function"
    },
    {
      "inputs": [
        {
          "internalType": "uint256",
          "name": "tokenId",
          "type": "uint256"
        }
      ],
      "name": "tokenURI",
      "outputs": [
        {
          "internalType": "string",
          "name": "",
          "type": "string"
        }
      ],
      "stateMutability": "pure",
      "type": "function"
    },
    {
      "inputs": [],
      "name": "treasury",
      "outputs": [
        {
          "internalType": "address",
          "name": "",
          "type": "address"
        }
      ],
      "stateMutability": "view",
      "type": "function"
    },
    {
      "inputs": [
        {
          "internalType": "uint256",
          "name": "",
          "type": "uint256"
        }
      ],
      "name": "uri",
      "outputs": [
        {
          "internalType": "string",
          "name": "",
          "type": "string"
        }
      ],
      "stateMutability": "view",
      "type": "function"
    }
  ],
  "bytecode": {
    "object": "0x6080604052600680546001600160a01b031990811690915560078054909116905560006008553480156200003257600080fd5b50604051620044733803806200447383398101604081905262000055916200019b565b6040518060800160405280605d815260200162004416605d91396200007a81620000bf565b5060016004556200008d600033620000d1565b600680546001600160a01b039384166001600160a01b0319918216179091556007805492909316911617905562000344565b6002620000cd828262000278565b5050565b60008281526003602090815260408083206001600160a01b0385168452909152902054620000cd908390839060ff16620000cd5760008281526003602090815260408083206001600160a01b03851684529091529020805460ff191660011790556200013a3390565b6001600160a01b0316816001600160a01b0316837f2f8788117e7eff1d82e926ec794901d17c78024a50270940304540a733656f0d60405160405180910390a45050565b80516001600160a01b03811681146200019657600080fd5b919050565b60008060408385031215620001af57600080fd5b620001ba836200017e565b9150620001ca602084016200017e565b90509250929050565b634e487b7160e01b600052604160045260246000fd5b600181811c90821680620001fe57607f821691505b6020821081036200021f57634e487b7160e01b600052602260045260246000fd5b50919050565b601f8211156200027357600081815260208120601f850160051c810160208610156200024e5750805b601f850160051c820191505b818110156200026f578281556001016200025a565b5050505b505050565b81516001600160401b03811115620002945762000294620001d3565b620002ac81620002a58454620001e9565b8462000225565b602080601f831160018114620002e45760008415620002cb5750858301515b600019600386901b1c1916600185901b1785556200026f565b600085815260208120601f198616915b828110156200031557888601518255948401946001909101908401620002f4565b5085821015620003345787850151600019600388901b60f8161c191681555b5050505050600190811b01905550565b6140c280620003546000396000f3fe6080604052600436106102665760003560e01c80638b4f049611610144578063bef7143d116100b6578063d74ea3be1161007a578063d74ea3be146107d3578063dd57f1ad146107e6578063e706a63914610806578063e985e9c514610826578063f242432a1461086f578063f88e32041461088f57600080fd5b8063bef7143d14610726578063c4f7797714610746578063c87b56dd14610766578063d159a94214610786578063d547741f146107b357600080fd5b8063a217fddf11610108578063a217fddf1461066b578063a22cb46514610680578063a256730d146106a0578063a406370a146106c0578063a5c42ef1146106f0578063b4b46d471461070657600080fd5b80638b4f04961461059357806391d14854146105b357806392323ee5146105d35780639e45ebf914610603578063a08eda5a1461063e57600080fd5b80632f2ff15d116101dd57806345149390116101a1578063451493901461049e5780634a53b76c146104be5780634e1273f4146104ee5780635e57966d1461051b578063611ee0811461053b57806361d027b31461057357600080fd5b80632f2ff15d146103f957806336568abe146104195780633d6d3410146104395780633e9b347f14610469578063437702751461047e57600080fd5b80631ccd79101161022f5780631ccd7910146103325780631e84bdd31461034757806322b05ed2146103675780632426bb3814610387578063248a9ca3146103a95780632eb2c2d6146103d957600080fd5b8062fdd58e1461026b57806301ffc9a71461029e57806306868c4b146102ce5780630cf0ac1d146102e35780630e89341c14610305575b600080fd5b34801561027757600080fd5b5061028b610286366004613262565b6108b1565b6040519081526020015b60405180910390f35b3480156102aa57600080fd5b506102be6102b93660046132a2565b610947565b6040519015158152602001610295565b6102e16102dc366004613374565b610958565b005b3480156102ef57600080fd5b506102f8610be8565b6040516102959190613404565b34801561031157600080fd5b50610325610320366004613466565b610d8f565b604051610295919061347f565b34801561033e57600080fd5b506102e1610e23565b34801561035357600080fd5b506102e1610362366004613492565b610ea2565b34801561037357600080fd5b506102be610382366004613374565b610f0d565b34801561039357600080fd5b5061028b60008051602061401a83398151915281565b3480156103b557600080fd5b5061028b6103c4366004613466565b60009081526003602052604090206001015490565b3480156103e557600080fd5b506102e16103f4366004613541565b610f8f565b34801561040557600080fd5b506102e16104143660046135ea565b610fdb565b34801561042557600080fd5b506102e16104343660046135ea565b611005565b34801561044557600080fd5b506102be610454366004613466565b600e6020526000908152604090205460ff1681565b34801561047557600080fd5b506102e1611083565b34801561048a57600080fd5b506102e1610499366004613374565b611100565b3480156104aa57600080fd5b506103256104b9366004613466565b6112e5565b3480156104ca57600080fd5b506102be6104d9366004613466565b600d6020526000908152604090205460ff1681565b3480156104fa57600080fd5b5061050e610509366004613616565b61137f565b604051610295919061371b565b34801561052757600080fd5b50610325610536366004613492565b6114a8565b34801561054757600080fd5b5060075461055b906001600160a01b031681565b6040516001600160a01b039091168152602001610295565b34801561057f57600080fd5b5060065461055b906001600160a01b031681565b34801561059f57600080fd5b5061055b6105ae36600461372e565b6114c4565b3480156105bf57600080fd5b506102be6105ce3660046135ea565b6114fc565b3480156105df57600080fd5b506102be6105ee366004613466565b60106020526000908152604090205460ff1681565b34801561060f57600080fd5b506102be61061e366004613374565b8051602081830181018051600f8252928201919093012091525460ff1681565b34801561064a57600080fd5b5061065e610659366004613374565b611527565b6040516102959190613750565b34801561067757600080fd5b5061028b600081565b34801561068c57600080fd5b506102e161069b36600461379d565b611600565b3480156106ac57600080fd5b506102e16106bb366004613374565b61160b565b3480156106cc57600080fd5b506102be6106db366004613466565b600c6020526000908152604090205460ff1681565b3480156106fc57600080fd5b5061028b60085481565b34801561071257600080fd5b506102e1610721366004613374565b61174a565b34801561073257600080fd5b506102e16107413660046137d9565b611b2d565b34801561075257600080fd5b506102e1610761366004613374565b611cf3565b34801561077257600080fd5b50610325610781366004613466565b61204d565b34801561079257600080fd5b5061028b6107a1366004613466565b600a6020526000908152604090205481565b3480156107bf57600080fd5b506102e16107ce3660046135ea565b612097565b6102e16107e13660046137d9565b6120bc565b3480156107f257600080fd5b506102e1610801366004613492565b612292565b34801561081257600080fd5b5061028b610821366004613374565b6122fa565b34801561083257600080fd5b506102be61084136600461381d565b6001600160a01b03918216600090815260016020908152604080832093909416825291909152205460ff1690565b34801561087b57600080fd5b506102e161088a366004613847565b6123cd565b34801561089b57600080fd5b5061028b600080516020613ffa83398151915281565b60006001600160a01b0383166109215760405162461bcd60e51b815260206004820152602a60248201527f455243313135353a2061646472657373207a65726f206973206e6f742061207660448201526930b634b21037bbb732b960b11b60648201526084015b60405180910390fd5b506000908152602081815260408083206001600160a01b03949094168352929052205490565b600061095282612412565b92915050565b61097060008051602061401a833981519152336114fc565b6109b85760405162461bcd60e51b815260206004820152601960248201527821b0b63632b91034b9903737ba1030b71032b6b83637bcb2b960391b6044820152606401610918565b600034116109d85760405162461bcd60e51b8152600401610918906138ab565b6006546008546040805160208101909152600081523492610a07926001600160a01b0390911691600190612437565b6006546040516001600160a01b039091169082156108fc029083906000818181858888f19350505050158015610a41573d6000803e3d6000fd5b506008546000908152600960205260409020610a5d838261396a565b50600880546000908152600a602052604090819020839055905490517fd03c9595063e238ef5abf908f74cfe2963bc5c60cde40d8f99f13d8bc6cd9be291610aa9918591908590613a29565b60405180910390a16008547fa109ba539900bf1b633f956d63c96fc89b814c7287f7aa50a9216d0b55657207610ade8261204d565b604051610aeb919061347f565b60405180910390a260088054906000610b0383613a64565b909155505060075460405163095ea7b360e01b8152306004820152670de0b6b3a764000060248201526001600160a01b039091169063095ea7b390604401600060405180830381600087803b158015610b5b57600080fd5b505af1158015610b6f573d6000803e3d6000fd5b50506007546040516323b872dd60e01b8152306004820152336024820152670de0b6b3a764000060448201526001600160a01b0390911692506323b872dd9150606401600060405180830381600087803b158015610bcc57600080fd5b505af1158015610be0573d6000803e3d6000fd5b505050505050565b606060006008546001600160401b03811115610c0657610c066132bf565b604051908082528060200260200182016040528015610c3957816020015b6060815260200190600190039081610c245790505b50905060005b6008548111610d8957600654604051627eeac760e11b81526001600160a01b03909116600482015260248101829052600090309062fdd58e90604401602060405180830381865afa158015610c98573d6000803e3d6000fd5b505050506040513d601f19601f82011682018060405250810190610cbc9190613a7d565b1115610d775760008181526009602052604090208054610cdb906138f0565b80601f0160208091040260200160405190810160405280929190818152602001828054610d07906138f0565b8015610d545780601f10610d2957610100808354040283529160200191610d54565b820191906000526020600020905b815481529060010190602001808311610d3757829003601f168201915b5050505050828281518110610d6b57610d6b613a96565b60200260200101819052505b80610d8181613a64565b915050610c3f565b50919050565b606060028054610d9e906138f0565b80601f0160208091040260200160405190810160405280929190818152602001828054610dca906138f0565b8015610e175780601f10610dec57610100808354040283529160200191610e17565b820191906000526020600020905b815481529060010190602001808311610dfa57829003601f168201915b50505050509050919050565b610e3b60008051602061401a833981519152336114fc565b15610e885760405162461bcd60e51b815260206004820152601d60248201527f43616c6c657220697320616c726561647920616e20656d706c6f7965720000006044820152606401610918565b610ea0600080516020613ffa83398151915233612542565b565b610ead6000336114fc565b610ef25760405162461bcd60e51b815260206004820152601660248201527521b0b63632b91034b9903737ba1030b71030b236b4b760511b6044820152606401610918565b610f0a60008051602061401a83398151915282612097565b50565b60405163e706a63960e01b81526000908190309063e706a63990610f3590869060040161347f565b602060405180830381865afa158015610f52573d6000803e3d6000fd5b505050506040513d601f19601f82011682018060405250810190610f769190613a7d565b6000908152600c602052604090205460ff169392505050565b6001600160a01b038516331480610fab5750610fab8533610841565b610fc75760405162461bcd60e51b815260040161091890613aac565b610fd4858585858561254c565b5050505050565b600082815260036020526040902060010154610ff681612721565b611000838361272b565b505050565b6001600160a01b03811633146110755760405162461bcd60e51b815260206004820152602f60248201527f416363657373436f6e74726f6c3a2063616e206f6e6c792072656e6f756e636560448201526e103937b632b9903337b91039b2b63360891b6064820152608401610918565b61107f82826127b1565b5050565b61109b600080516020613ffa833981519152336114fc565b156110e85760405162461bcd60e51b815260206004820152601e60248201527f43616c6c657220697320616c7265616479206120636f6e74726163746f7200006044820152606401610918565b610ea060008051602061401a83398151915233612542565b611118600080516020613ffa833981519152336114fc565b6111345760405162461bcd60e51b815260040161091890613afa565b60405163e706a63960e01b8152600090309063e706a6399061115a90859060040161347f565b602060405180830381865afa158015611177573d6000803e3d6000fd5b505050506040513d601f19601f8201168201806040525081019061119b9190613a7d565b9050600f6111c1836111ac336114a8565b60405180602001604052806000815250612818565b6040516111ce9190613b31565b9081526040519081900360200190205460ff161561122e5760405162461bcd60e51b815260206004820152601f60248201527f426f756e74792068617320616c7265616479206265656e20636c61696d6564006044820152606401610918565b6001600f61123f846111ac336114a8565b60405161124c9190613b31565b9081526040805160209281900383018120805460ff1916941515949094179093556000848152600b83528181208054600181018255908252838220018054336001600160a01b031990911617905584815260098352818120600a90935220547fc7f5957ad976140878015d285fd47bebc799a9a4a33a8b17efd687a9b1434a30926112d992918591613b4d565b60405180910390a15050565b600960205260009081526040902080546112fe906138f0565b80601f016020809104026020016040519081016040528092919081815260200182805461132a906138f0565b80156113775780601f1061134c57610100808354040283529160200191611377565b820191906000526020600020905b81548152906001019060200180831161135a57829003601f168201915b505050505081565b606081518351146113e45760405162461bcd60e51b815260206004820152602960248201527f455243313135353a206163636f756e747320616e6420696473206c656e677468604482015268040dad2e6dac2e8c6d60bb1b6064820152608401610918565b600083516001600160401b038111156113ff576113ff6132bf565b604051908082528060200260200182016040528015611428578160200160208202803683370190505b50905060005b84518110156114a05761147385828151811061144c5761144c613a96565b602002602001015185838151811061146657611466613a96565b60200260200101516108b1565b82828151811061148557611485613a96565b602090810291909101015261149981613a64565b905061142e565b509392505050565b60606001600160a01b0382166114bd81612847565b9392505050565b600b60205281600052604060002081815481106114e057600080fd5b6000918252602090912001546001600160a01b03169150829050565b60009182526003602090815260408084206001600160a01b0393909316845291905290205460ff1690565b60405163e706a63960e01b8152606090600090309063e706a6399061155090869060040161347f565b602060405180830381865afa15801561156d573d6000803e3d6000fd5b505050506040513d601f19601f820116820180604052508101906115919190613a7d565b6000818152600b602090815260409182902080548351818402810184019094528084529394509192908301828280156115f357602002820191906000526020600020905b81546001600160a01b031681526001909101906020018083116115d5575b5050505050915050919050565b61107f33838361294f565b61162360008051602061401a833981519152336114fc565b61166a5760405162461bcd60e51b815260206004820152601860248201527721b0b63632b91034b9903737ba10309032b6b83637bcb2b960411b6044820152606401610918565b60405163e706a63960e01b8152600090309063e706a6399061169090859060040161347f565b602060405180830381865afa1580156116ad573d6000803e3d6000fd5b505050506040513d601f19601f820116820180604052508101906116d19190613a7d565b6006549091506001906116ed906001600160a01b0316836108b1565b10156117325760405162461bcd60e51b8152602060048201526014602482015273426f756e7479206e6f7420617661696c61626c6560601b6044820152606401610918565b60065461107f906001600160a01b0316826001612a2f565b611762600080516020613ffa833981519152336114fc565b61177e5760405162461bcd60e51b815260040161091890613afa565b60405163e706a63960e01b8152600090309063e706a639906117a490859060040161347f565b602060405180830381865afa1580156117c1573d6000803e3d6000fd5b505050506040513d601f19601f820116820180604052508101906117e59190613a7d565b6000818152600e602052604090205490915060ff16156118515760405162461bcd60e51b815260206004820152602160248201527f426f756e74792068617320616c7265616479206265656e20636f6d706c6574656044820152601960fa1b6064820152608401610918565b6000818152600e60209081526040808320805460ff19166001179055600b8252808320805482518185028101850190935280835291929091908301828280156118c357602002820191906000526020600020905b81546001600160a01b031681526001909101906020018083116118a5575b509394506000935050505060005b8251811015611919576118fd8382815181106118ef576118ef613a96565b602002602001015133612bab565b1561190757600191505b8061191181613a64565b9150506118d1565b50806119675760405162461bcd60e51b815260206004820152601e60248201527f43616c6c6572206973206e6f74206120626f756e747920636c61696d657200006044820152606401610918565b6000838152600c602052604090205460ff166119955760405162461bcd60e51b815260040161091890613be3565b60065460405163f3fef3a360e01b8152336004820152602481018590526001600160a01b039091169063f3fef3a390604401600060405180830381600087803b1580156119e157600080fd5b505af11580156119f5573d6000803e3d6000fd5b505060075460405163095ea7b360e01b8152306004820152674563918244f4000060248201526001600160a01b03909116925063095ea7b39150604401600060405180830381600087803b158015611a4c57600080fd5b505af1158015611a60573d6000803e3d6000fd5b50506007546040516323b872dd60e01b8152306004820152336024820152674563918244f4000060448201526001600160a01b0390911692506323b872dd9150606401600060405180830381600087803b158015611abd57600080fd5b505af1158015611ad1573d6000803e3d6000fd5b5050506000848152600960209081526040808320600a909252918290205491517ff9d5b8621260e8c7e877bcee0fc9f0e573e710ba890884275d67dcfc19e0b0569350611b1f928791613b4d565b60405180910390a150505050565b611b4560008051602061401a833981519152336114fc565b611b8c5760405162461bcd60e51b815260206004820152601860248201527721b0b63632b91034b9903737ba10309032b6b83637bcb2b960411b6044820152606401610918565b60405163e706a63960e01b8152600090309063e706a63990611bb290869060040161347f565b602060405180830381865afa158015611bcf573d6000803e3d6000fd5b505050506040513d601f19601f82011682018060405250810190611bf39190613a7d565b60008181526010602052604090205490915060ff1615611c555760405162461bcd60e51b815260206004820181905260248201527f426f756e74792068617320616c7265616479206265656e20617070726f7665646044820152606401610918565b60008181526010602090815260408083208054600160ff199182168117909255600c9093529281902080549092169092179055600654905163131f8abb60e31b81526001600160a01b03848116600483015260248201849052909116906398fc55d8906044015b600060405180830381600087803b158015611cd657600080fd5b505af1158015611cea573d6000803e3d6000fd5b50505050505050565b60405163e706a63960e01b8152600090309063e706a63990611d1990859060040161347f565b602060405180830381865afa158015611d36573d6000803e3d6000fd5b505050506040513d601f19601f82011682018060405250810190611d5a9190613a7d565b6000818152600d602052604090205490915060ff1615611dd25760405162461bcd60e51b815260206004820152602d60248201527f5468697320626f756e74792072657761726473206861766520616c726561647960448201526c081899595b8818db185a5b5959609a1b6064820152608401610918565b6000818152600d60205260409020805460ff19166001179055611e03600080516020613ffa833981519152336114fc565b611e1f5760405162461bcd60e51b815260040161091890613afa565b6000818152600c602052604090205460ff16611e4d5760405162461bcd60e51b815260040161091890613be3565b6001611e5933836108b1565b1015611eb55760405162461bcd60e51b815260206004820152602560248201527f596f752068617665206e6f7420636f6d706c657465642074686520426f756e746044820152641e481e595d60da1b6064820152608401610918565b6000818152600a60205260408082205460075491516370a0823160e01b81523360048201529092916001600160a01b0316906370a0823190602401602060405180830381865afa158015611f0d573d6000803e3d6000fd5b505050506040513d601f19601f82011682018060405250810190611f319190613a7d565b905060fa68015af1d78b58c400008210611f4d575060c8611fb1565b68056bc75e2d631000008210611f65575060af611fb1565b681043561a88293000008210611f7d57506096611fb1565b681b1ae4d6e2ef5000008210611f95575060af611fb1565b683635c9adc5dea000008210611fad57506064611fb1565b5060fa5b6000612710611fc08386613c34565b611fca9190613c69565b90506000611fd88286613c7d565b600654604051631f58fee360e11b815233600482015260248101899052604481018390529192506001600160a01b031690633eb1fdc690606401600060405180830381600087803b15801561202c57600080fd5b505af1158015612040573d6000803e3d6000fd5b5050505050505050505050565b606061095260405180608001604052806053815260200161403a6053913961207484612847565b60405180604001604052806005815260200164173539b7b760d91b815250612818565b6000828152600360205260409020600101546120b281612721565b61100083836127b1565b6120d460008051602061401a833981519152336114fc565b61211c5760405162461bcd60e51b815260206004820152601960248201527821b0b63632b91034b9903737ba1030b71032b6b83637bcb2b960391b6044820152606401610918565b6000341161213c5760405162461bcd60e51b8152600401610918906138ab565b600654600854604080516020810190915260008152349261216b926001600160a01b0390911691600190612437565b6006546040516001600160a01b039091169082156108fc029083906000818181858888f193505050501580156121a5573d6000803e3d6000fd5b5060085460009081526009602052604090206121c1848261396a565b507fd03c9595063e238ef5abf908f74cfe2963bc5c60cde40d8f99f13d8bc6cd9be283600854836040516121f793929190613a29565b60405180910390a16008547fa109ba539900bf1b633f956d63c96fc89b814c7287f7aa50a9216d0b5565720761222c8261204d565b604051612239919061347f565b60405180910390a26008805490600061225183613a64565b909155505060065460085460405163131f8abb60e31b81526001600160a01b03858116600483015260248201929092529116906398fc55d890604401611cbc565b61229d6000336114fc565b6122e25760405162461bcd60e51b815260206004820152601660248201527521b0b63632b91034b9903737ba1030b71030b236b4b760511b6044820152606401610918565b610f0a600080516020613ffa83398151915282612097565b60008060005b60085481116123c657600081815260096020526040902080546123ab9190612327906138f0565b80601f0160208091040260200160405190810160405280929190818152602001828054612353906138f0565b80156123a05780601f10612375576101008083540402835291602001916123a0565b820191906000526020600020905b81548152906001019060200180831161238357829003601f168201915b505050505085612c2b565b156123b4578091505b806123be81613a64565b915050612300565b5092915050565b6001600160a01b0385163314806123e957506123e98533610841565b6124055760405162461bcd60e51b815260040161091890613aac565b610fd48585858585612c65565b60006001600160e01b03198216637965db0b60e01b1480610952575061095282612d8f565b6001600160a01b0384166124975760405162461bcd60e51b815260206004820152602160248201527f455243313135353a206d696e7420746f20746865207a65726f206164647265736044820152607360f81b6064820152608401610918565b3360006124a385612ddf565b905060006124b085612ddf565b90506000868152602081815260408083206001600160a01b038b168452909152812080548792906124e2908490613c94565b909155505060408051878152602081018790526001600160a01b03808a1692600092918716917fc3d58168c5ae7397731d063d5bbf3d657854427343f4c083240f7aacaa2d0f62910160405180910390a4611cea83600089898989612e2a565b61107f828261272b565b81518351146125ae5760405162461bcd60e51b815260206004820152602860248201527f455243313135353a2069647320616e6420616d6f756e7473206c656e677468206044820152670dad2e6dac2e8c6d60c31b6064820152608401610918565b6001600160a01b0384166125d45760405162461bcd60e51b815260040161091890613cac565b3360005b84518110156126bb5760008582815181106125f5576125f5613a96565b60200260200101519050600085838151811061261357612613613a96565b602090810291909101810151600084815280835260408082206001600160a01b038e1683529093529190912054909150818110156126635760405162461bcd60e51b815260040161091890613cf1565b6000838152602081815260408083206001600160a01b038e8116855292528083208585039055908b168252812080548492906126a0908490613c94565b92505081905550505050806126b490613a64565b90506125d8565b50846001600160a01b0316866001600160a01b0316826001600160a01b03167f4a39dc06d4c0dbc64b70af90fd698a233a518aa5d07e595d983b8c0526c8f7fb878760405161270b929190613d3b565b60405180910390a4610be0818787878787612f85565b610f0a8133613040565b61273582826114fc565b61107f5760008281526003602090815260408083206001600160a01b03851684529091529020805460ff1916600117905561276d3390565b6001600160a01b0316816001600160a01b0316837f2f8788117e7eff1d82e926ec794901d17c78024a50270940304540a733656f0d60405160405180910390a45050565b6127bb82826114fc565b1561107f5760008281526003602090815260408083206001600160a01b0385168085529252808320805460ff1916905551339285917ff6391f5c32d9c69d2a47ea670b442974b53935d1edc7fd64eb21e047a839171b9190a45050565b606083838360405160200161282f93929190613d69565b60405160208183030381529060405290509392505050565b60608160000361286e5750506040805180820190915260018152600360fc1b602082015290565b8160005b8115612898578061288281613a64565b91506128919050600a83613c69565b9150612872565b6000816001600160401b038111156128b2576128b26132bf565b6040519080825280601f01601f1916602001820160405280156128dc576020820181803683370190505b5090505b8415612947576128f1600183613c7d565b91506128fe600a86613dac565b612909906030613c94565b60f81b81838151811061291e5761291e613a96565b60200101906001600160f81b031916908160001a905350612940600a86613c69565b94506128e0565b949350505050565b816001600160a01b0316836001600160a01b0316036129c25760405162461bcd60e51b815260206004820152602960248201527f455243313135353a2073657474696e6720617070726f76616c20737461747573604482015268103337b91039b2b63360b91b6064820152608401610918565b6001600160a01b03838116600081815260016020908152604080832094871680845294825291829020805460ff191686151590811790915591519182527f17307eab39ab6107e8899845ad3d59bd9653f200f220920489ca2b5937696c31910160405180910390a3505050565b6001600160a01b038316612a915760405162461bcd60e51b815260206004820152602360248201527f455243313135353a206275726e2066726f6d20746865207a65726f206164647260448201526265737360e81b6064820152608401610918565b336000612a9d84612ddf565b90506000612aaa84612ddf565b60408051602080820183526000918290528882528181528282206001600160a01b038b1683529052205490915084811015612b335760405162461bcd60e51b8152602060048201526024808201527f455243313135353a206275726e20616d6f756e7420657863656564732062616c604482015263616e636560e01b6064820152608401610918565b6000868152602081815260408083206001600160a01b038b81168086529184528285208a8703905582518b81529384018a90529092908816917fc3d58168c5ae7397731d063d5bbf3d657854427343f4c083240f7aacaa2d0f62910160405180910390a4604080516020810190915260009052611cea565b6040516bffffffffffffffffffffffff19606083901b1660208201526000906034016040516020818303038152906040528051906020012083604051602001612c0c919060609190911b6bffffffffffffffffffffffff1916815260140190565b6040516020818303038152906040528051906020012014905092915050565b600081604051602001612c3e9190613b31565b6040516020818303038152906040528051906020012083604051602001612c0c9190613b31565b6001600160a01b038416612c8b5760405162461bcd60e51b815260040161091890613cac565b336000612c9785612ddf565b90506000612ca485612ddf565b90506000868152602081815260408083206001600160a01b038c16845290915290205485811015612ce75760405162461bcd60e51b815260040161091890613cf1565b6000878152602081815260408083206001600160a01b038d8116855292528083208985039055908a16825281208054889290612d24908490613c94565b909155505060408051888152602081018890526001600160a01b03808b16928c821692918816917fc3d58168c5ae7397731d063d5bbf3d657854427343f4c083240f7aacaa2d0f62910160405180910390a4612d84848a8a8a8a8a612e2a565b505050505050505050565b60006001600160e01b03198216636cdb3d1360e11b1480612dc057506001600160e01b031982166303a24d0760e21b145b8061095257506301ffc9a760e01b6001600160e01b0319831614610952565b60408051600180825281830190925260609160009190602080830190803683370190505090508281600081518110612e1957612e19613a96565b602090810291909101015292915050565b6001600160a01b0384163b15610be05760405163f23a6e6160e01b81526001600160a01b0385169063f23a6e6190612e6e9089908990889088908890600401613dc0565b6020604051808303816000875af1925050508015612ea9575060408051601f3d908101601f19168201909252612ea691810190613e05565b60015b612f5557612eb5613e22565b806308c379a003612eee5750612ec9613e3e565b80612ed45750612ef0565b8060405162461bcd60e51b8152600401610918919061347f565b505b60405162461bcd60e51b815260206004820152603460248201527f455243313135353a207472616e7366657220746f206e6f6e2d455243313135356044820152732932b1b2b4bb32b91034b6b83632b6b2b73a32b960611b6064820152608401610918565b6001600160e01b0319811663f23a6e6160e01b14611cea5760405162461bcd60e51b815260040161091890613ec7565b6001600160a01b0384163b15610be05760405163bc197c8160e01b81526001600160a01b0385169063bc197c8190612fc99089908990889088908890600401613f0f565b6020604051808303816000875af1925050508015613004575060408051601f3d908101601f1916820190925261300191810190613e05565b60015b61301057612eb5613e22565b6001600160e01b0319811663bc197c8160e01b14611cea5760405162461bcd60e51b815260040161091890613ec7565b61304a82826114fc565b61107f5761305781613099565b6130628360206130ab565b604051602001613073929190613f6d565b60408051601f198184030181529082905262461bcd60e51b82526109189160040161347f565b60606109526001600160a01b03831660145b606060006130ba836002613c34565b6130c5906002613c94565b6001600160401b038111156130dc576130dc6132bf565b6040519080825280601f01601f191660200182016040528015613106576020820181803683370190505b509050600360fc1b8160008151811061312157613121613a96565b60200101906001600160f81b031916908160001a905350600f60fb1b8160018151811061315057613150613a96565b60200101906001600160f81b031916908160001a9053506000613174846002613c34565b61317f906001613c94565b90505b60018111156131f7576f181899199a1a9b1b9c1cb0b131b232b360811b85600f16601081106131b3576131b3613a96565b1a60f81b8282815181106131c9576131c9613a96565b60200101906001600160f81b031916908160001a90535060049490941c936131f081613fe2565b9050613182565b5083156114bd5760405162461bcd60e51b815260206004820181905260248201527f537472696e67733a20686578206c656e67746820696e73756666696369656e746044820152606401610918565b80356001600160a01b038116811461325d57600080fd5b919050565b6000806040838503121561327557600080fd5b61327e83613246565b946020939093013593505050565b6001600160e01b031981168114610f0a57600080fd5b6000602082840312156132b457600080fd5b81356114bd8161328c565b634e487b7160e01b600052604160045260246000fd5b601f8201601f191681016001600160401b03811182821017156132fa576132fa6132bf565b6040525050565b600082601f83011261331257600080fd5b81356001600160401b0381111561332b5761332b6132bf565b604051613342601f8301601f1916602001826132d5565b81815284602083860101111561335757600080fd5b816020850160208301376000918101602001919091529392505050565b60006020828403121561338657600080fd5b81356001600160401b0381111561339c57600080fd5b61294784828501613301565b60005b838110156133c35781810151838201526020016133ab565b838111156133d2576000848401525b50505050565b600081518084526133f08160208601602086016133a8565b601f01601f19169290920160200192915050565b6000602080830181845280855180835260408601915060408160051b870101925083870160005b8281101561345957603f198886030184526134478583516133d8565b9450928501929085019060010161342b565b5092979650505050505050565b60006020828403121561347857600080fd5b5035919050565b6020815260006114bd60208301846133d8565b6000602082840312156134a457600080fd5b6114bd82613246565b60006001600160401b038211156134c6576134c66132bf565b5060051b60200190565b600082601f8301126134e157600080fd5b813560206134ee826134ad565b6040516134fb82826132d5565b83815260059390931b850182019282810191508684111561351b57600080fd5b8286015b84811015613536578035835291830191830161351f565b509695505050505050565b600080600080600060a0868803121561355957600080fd5b61356286613246565b945061357060208701613246565b935060408601356001600160401b038082111561358c57600080fd5b61359889838a016134d0565b945060608801359150808211156135ae57600080fd5b6135ba89838a016134d0565b935060808801359150808211156135d057600080fd5b506135dd88828901613301565b9150509295509295909350565b600080604083850312156135fd57600080fd5b8235915061360d60208401613246565b90509250929050565b6000806040838503121561362957600080fd5b82356001600160401b038082111561364057600080fd5b818501915085601f83011261365457600080fd5b81356020613661826134ad565b60405161366e82826132d5565b83815260059390931b850182019282810191508984111561368e57600080fd5b948201945b838610156136b3576136a486613246565b82529482019490820190613693565b965050860135925050808211156136c957600080fd5b506136d6858286016134d0565b9150509250929050565b600081518084526020808501945080840160005b83811015613710578151875295820195908201906001016136f4565b509495945050505050565b6020815260006114bd60208301846136e0565b6000806040838503121561374157600080fd5b50508035926020909101359150565b6020808252825182820181905260009190848201906040850190845b818110156137915783516001600160a01b03168352928401929184019160010161376c565b50909695505050505050565b600080604083850312156137b057600080fd5b6137b983613246565b9150602083013580151581146137ce57600080fd5b809150509250929050565b600080604083850312156137ec57600080fd5b82356001600160401b0381111561380257600080fd5b61380e85828601613301565b92505061360d60208401613246565b6000806040838503121561383057600080fd5b61383983613246565b915061360d60208401613246565b600080600080600060a0868803121561385f57600080fd5b61386886613246565b945061387660208701613246565b9350604086013592506060860135915060808601356001600160401b0381111561389f57600080fd5b6135dd88828901613301565b60208082526025908201527f506c6561736520646566696e6520612072657761726420666f722074686520426040820152646f756e747960d81b606082015260800190565b600181811c9082168061390457607f821691505b602082108103610d8957634e487b7160e01b600052602260045260246000fd5b601f82111561100057600081815260208120601f850160051c8101602086101561394b5750805b601f850160051c820191505b81811015610be057828155600101613957565b81516001600160401b03811115613983576139836132bf565b6139978161399184546138f0565b84613924565b602080601f8311600181146139cc57600084156139b45750858301515b600019600386901b1c1916600185901b178555610be0565b600085815260208120601f198616915b828110156139fb578886015182559484019460019091019084016139dc565b5085821015613a195787850151600019600388901b60f8161c191681555b5050505050600190811b01905550565b606081526000613a3c60608301866133d8565b60208301949094525060400152919050565b634e487b7160e01b600052601160045260246000fd5b600060018201613a7657613a76613a4e565b5060010190565b600060208284031215613a8f57600080fd5b5051919050565b634e487b7160e01b600052603260045260246000fd5b6020808252602e908201527f455243313135353a2063616c6c6572206973206e6f7420746f6b656e206f776e60408201526d195c881bdc88185c1c1c9bdd995960921b606082015260800190565b6020808252601a908201527f43616c6c6572206973206e6f74206120636f6e74726163746f72000000000000604082015260600190565b60008251613b438184602087016133a8565b9190910192915050565b606081526000808554613b5f816138f0565b8060608601526080600180841660008114613b815760018114613b9b57613bcc565b60ff1985168884015283151560051b880183019550613bcc565b8a60005260208060002060005b86811015613bc35781548b8201870152908401908201613ba8565b8a018501975050505b505050505060208301949094525060400152919050565b60208082526031908201527f426f756e747920636f6d706c6574696f6e206973206e6f7420617070726f76656040820152703210313c903a34329032b6b83637bcb2b960791b606082015260800190565b6000816000190483118215151615613c4e57613c4e613a4e565b500290565b634e487b7160e01b600052601260045260246000fd5b600082613c7857613c78613c53565b500490565b600082821015613c8f57613c8f613a4e565b500390565b60008219821115613ca757613ca7613a4e565b500190565b60208082526025908201527f455243313135353a207472616e7366657220746f20746865207a65726f206164604082015264647265737360d81b606082015260800190565b6020808252602a908201527f455243313135353a20696e73756666696369656e742062616c616e636520666f60408201526939103a3930b739b332b960b11b606082015260800190565b604081526000613d4e60408301856136e0565b8281036020840152613d6081856136e0565b95945050505050565b60008451613d7b8184602089016133a8565b845190830190613d8f8183602089016133a8565b8451910190613da28183602088016133a8565b0195945050505050565b600082613dbb57613dbb613c53565b500690565b6001600160a01b03868116825285166020820152604081018490526060810183905260a060808201819052600090613dfa908301846133d8565b979650505050505050565b600060208284031215613e1757600080fd5b81516114bd8161328c565b600060033d1115613e3b5760046000803e5060005160e01c5b90565b600060443d1015613e4c5790565b6040516003193d81016004833e81513d6001600160401b038160248401118184111715613e7b57505050505090565b8285019150815181811115613e935750505050505090565b843d8701016020828501011115613ead5750505050505090565b613ebc602082860101876132d5565b509095945050505050565b60208082526028908201527f455243313135353a204552433131353552656365697665722072656a656374656040820152676420746f6b656e7360c01b606082015260800190565b6001600160a01b0386811682528516602082015260a060408201819052600090613f3b908301866136e0565b8281036060840152613f4d81866136e0565b90508281036080840152613f6181856133d8565b98975050505050505050565b7f416363657373436f6e74726f6c3a206163636f756e7420000000000000000000815260008351613fa58160178501602088016133a8565b7001034b99036b4b9b9b4b733903937b6329607d1b6017918401918201528351613fd68160288401602088016133a8565b01602801949350505050565b600081613ff157613ff1613a4e565b50600019019056feef28dcbf06eb73add8f77665c46a6263e719f928f9c34710ec1097573ba6e20cfc7c36207174f786648d2e624616a4b40e15fd7f0268b4e36af5057f0c43c83568747470733a2f2f697066732e696f2f69706e732f6b3531717a693575717535646969746272306b7977326a7574357a36643036686d39323374316d71617967756477347a663275316f636269703838696571a26469706673582212209ed06db790b00fd6b0c389cbd74cd9fbc767fbfbd3d4135297d0a23361e570a564736f6c634300080f003368747470733a2f2f697066732e696f2f69706e732f6b3531717a693575717535646969746272306b7977326a7574357a36643036686d39323374316d71617967756477347a663275316f6362697038386965712f7b69647d2e6a736f6e",
    "linkReferences": {}
  },
  "methodIdentifiers": {
    "CONTRACTOR_ROLE()": "f88e3204",
    "DEFAULT_ADMIN_ROLE()": "a217fddf",
    "EMPLOYER_ROLE()": "2426bb38",
    "addressToString(address)": "5e57966d",
    "approveCompletedTask(string,address)": "bef7143d",
    "approvedTask(uint256)": "92323ee5",
    "balanceOf(address,uint256)": "00fdd58e",
    "balanceOfBatch(address[],uint256[])": "4e1273f4",
    "bstoken()": "611ee081",
    "claimTask(string)": "43770275",
    "claimFunds(string)": "c4f77977",
    "claimedTask(string)": "9e45ebf9",
    "claimedReward(uint256)": "4a53b76c",
    "completeTask(string)": "b4b46d47",
    "completedTask(uint256)": "3d6d3410",
    "createTask(string)": "06868c4b",
    "createPrivateTask(string,address)": "d74ea3be",
    "deleteTask(string)": "a256730d",
    "getTasks()": "0cf0ac1d",
    "getClaimers(string)": "a08eda5a",
    "getRoleAdmin(bytes32)": "248a9ca3",
    "getStatus(string)": "22b05ed2",
    "getTokenID(string)": "e706a639",
    "grantRole(bytes32,address)": "2f2ff15d",
    "grantRoleContractor()": "1ccd7910",
    "grantRoleEmployer()": "3e9b347f",
    "hasRole(bytes32,address)": "91d14854",
    "isApprovedForAll(address,address)": "e985e9c5",
    "renounceRole(bytes32,address)": "36568abe",
    "revokeRole(bytes32,address)": "d547741f",
    "revokeRoleContractor(address)": "dd57f1ad",
    "revokeRoleEmployer(address)": "1e84bdd3",
    "safeBatchTransferFrom(address,address,uint256[],uint256[],bytes)": "2eb2c2d6",
    "safeTransferFrom(address,address,uint256,uint256,bytes)": "f242432a",
    "setApprovalForAll(address,bool)": "a22cb465",
    "supportsInterface(bytes4)": "01ffc9a7",
    "tokenID()": "a5c42ef1",
    "tokenIDtoClaimers(uint256,uint256)": "8b4f0496",
    "tokenIDtoDone(uint256)": "a406370a",
    "tokenIDtoIPFS(uint256)": "45149390",
    "tokenIDtoReward(uint256)": "d159a942",
    "tokenURI(uint256)": "c87b56dd",
    "treasury()": "61d027b3",
    "uri(uint256)": "0e89341c"
  },
  "id": 25
}